:020000040800F2
:1000000000200020591100081110000817100008E6
:1000100000000000000000000000000000000000E0
:100020000000000000000000000000001D1000089B
:100030000000000000000000271000083110000838
:10004000A911000800000000A9110008A91100086A
:100050003F100008491000085F1000086F100008EA
:1000600000000000A9110008A9110008A91100084A
:10007000A9110008A9110008A9110008000000003A
:10008000A9110008C910000800000000A91100080B
:10009000A9110008A9110008A9110008A911000858
:1000A000A9110008A9110008A9110008A911000848
:1000B000A91100080000000000000000000000007E
:1000C00010B5064C2378002B07D1054B002B02D02E
:1000D000044800E000BF0123237010BD7000002021
:1000E0000000000070390008044B10B5002B03D04D
:1000F0000349044800E000BF10BDC04600000000F6
:1001000074000020703900080023C25C0133002A0B
:10011000FBD1581E7047000003B4714649084000E7
:100120004900095E49008E4403BC70470022430821
:100130008B4274D303098B425FD3030A8B4244D3AF
:10014000030B8B4228D3030C8B420DD3FF220902F1
:1001500012BA030C8B4202D31212090265D0030BB0
:100160008B4219D300E0090AC30B8B4201D3CB03A6
:10017000C01A5241830B8B4201D38B03C01A5241E8
:10018000430B8B4201D34B03C01A5241030B8B42EA
:1001900001D30B03C01A5241C30A8B4201D3CB02D5
:1001A000C01A5241830A8B4201D38B02C01A5241BA
:1001B000430A8B4201D34B02C01A5241030A8B42BD
:1001C00001D30B02C01A5241CDD2C3098B4201D3D5
:1001D000CB01C01A524183098B4201D38B01C01A53
:1001E000524143098B4201D34B01C01A52410309CA
:1001F0008B4201D30B01C01A5241C3088B4201D379
:10020000CB00C01A524183088B4201D38B00C01A25
:10021000524143088B4201D34B00C01A5241411A4C
:1002200000D20146524110467047FFE701B5002059
:1002300000F006F802BDC0460029F7D076E7704707
:100240007047C046F0B5DE4657464E464546E0B5D7
:10025000F5B00AAF00F0AAFF00F060F900F094FAE0
:1002600000F0F2F900F016FA00F038FA00F05CFA4B
:1002700000F0BCF99F4B1B680A2B30DC9D4B1B68C0
:100280009BB2180000F0BAFD9A4B1A689A4B5200C4
:10029000D35A0122190001F05FFA962000F0EAFF1C
:1002A000944B1B689BB2180000F0A8FD914B1A6894
:1002B000914B5200D35A0022190001F04DFA8F4B96
:1002C0001B685A1C8D4B1A608A4B1B685A1C894B41
:1002D0001A608B4B00221A608A4B00221A60854BF1
:1002E0001B680B2BC6D10023CC22520008215218C8
:1002F000D21913602EE0CF24640008256319DB199E
:100300001A88CC2040004319DB191B689A4013005F
:100310001AB27D4B4119C91909684900CB5A1BB261
:1003200013431AB26319DB191A80774B4219D21999
:1003300012685200D35A002B02D1744B01221A705A
:10034000CC22520008215318DB191B6801335218C4
:10035000D2191360CC235B0008201B18DB191B6823
:100360000A2BC8DD684B1B889B46674B5B887B600C
:10037000654B9B881A00644BDB881C00624B1B8911
:100380001D00614B5B891E005F4B9B899C465E4B49
:10039000DB8998465C4B1B8A99465B4B5B8A9A4685
:1003A000594B9B8A5A4938180893534607934B4632
:1003B000069343460593634604930396029501947E
:1003C00000927B685A4602F069FE08243B19180027
:1003D000FFF79AFE03009AB239194E48642302F0DF
:1003E00081FA444B1B685A1C424B1A60474B1B78DE
:1003F000002B00D175E09023DB05002208211800B6
:1004000001F0AAF9444B1B68012B2DD10023CA220D
:1004100052001219D21913601DE09023DB0501224E
:100420000421180001F098F9FA2000F023FF90232E
:10043000DB0500220421180001F08EF9FA2000F0FB
:1004400019FFCA22520008215318DB191B68013317
:100450005218D2191360CA235B0008229B18DB19BB
:100460001B68022BD9DD05E70023C82252000821B2
:100470005218D21913602BE09023DB0501220421CE
:10048000180001F069F9C8235B0008229B18DB19EA
:100490001B68022B05D1FA239B00180000F0EAFE2E
:1004A00002E0FA2000F0E6FE9023DB0500220421A2
:1004B000180001F051F9FA2000F0DCFEC8225200C9
:1004C00008215318DB191B6801335218D219136025
:1004D000C8235B0008229B18DB191B68022BCBDDAD
:1004E000C8E69023DB0500220221180001F034F950
:1004F000C0E6C046E8010020443A0008DC010020C4
:10050000E0010020E4010020C4010020C00100201F
:10051000883900083C010020EC01002090B595B01E
:1005200000AF20243B19180030231A00002102F0EC
:10053000ADFD1023FB18180010231A00002102F053
:10054000A5FD3B00180010231A00002102F09EFDBB
:1005500021007B1809221A607B1801225A607B183F
:100560000122DA617B1802221A627B188022520271
:100570005A627B18802252039A627B180022DA6248
:100580007B18180001F022F9031E01D000F07EFC58
:1005900010217B1807221A607B1802225A607B18F0
:1005A00000229A607B180022DA607B180121180073
:1005B00001F026FC031E01D000F068FC3B000A4A53
:1005C0001A603B0000229A603B00802292005A6031
:1005D0003B00180001F066FD031E01D000F056FC40
:1005E000C046BD4615B090BD0100010080B500AF0A
:1005F00000220021052000F00DFF052000F01FFF64
:1006000000220021062000F005FF062000F017FF61
:1006100000220021072000F0FDFE072000F00FFF60
:1006200000220021112000F0F5FE112000F007FF4C
:1006300000220021042000F0EDFE042000F0FFFE67
:10064000C046BD4680BD000080B500AF0F4B104ACC
:100650001A600E4B00225A600C4B7F229A600B4BA3
:10066000FF22DA60094B00221A61084B00225A610E
:10067000064B00229A61054B180001F0E1FD031EB4
:1006800001D000F003FCC046BD4680BD8C000020B8
:100690000028004080B500AF0D4B0E4A1A600C4B8D
:1006A0006822FF325A600A4B00229A60084B0A4ABD
:1006B000DA60074B00229A61054B180001F0A9FE91
:1006C000031E01D000F0E2FBC046BD4680BDC0461F
:1006D000AC000020001000401027000080B500AFE3
:1006E0000E4B0F4A1A600D4B00225A600B4B002232
:1006F0009A600A4B0B4ADA60084B00221A61074BDA
:1007000000229A61054B180001F083FE031E01D000
:1007100000F0BCFBC046BD4680BDC046F4000020D2
:1007200000200040FFFF000080B500AF144B154AC9
:100730001A60134BE12252025A60114B00229A6058
:100740000F4B0022DA600E4B00221A610C4B0C2278
:100750005A610B4B00229A61094B0022DA61084B67
:1007600000221A62064B00225A62054B180002F062
:1007700065F8031E01D000F089FBC046BD4680BD70
:100780003C0100200038014090B58BB000AF14242C
:100790003B19180014231A00002102F077FCBF4B0C
:1007A0005A69BE4B802109030A435A61BB4B5A69FF
:1007B00080231B0313403B613B69B84B5A69B74B1D
:1007C0008021C9030A435A61B44B5A698023DB0371
:1007D0001340FB60FB68B14B5A69B04B8021890222
:1007E0000A435A61AD4B5A6980239B021340BB6098
:1007F000BB68AA4B5A69A94B8021C9020A435A61B6
:10080000A64B5A698023DB0213407B607B68A34BB5
:100810005A69A24B802149030A435A619F4B5A6986
:1008200080235B0313403B603B68F0239B019C48A3
:100830000122190000F090FF9A499023DB05012264
:10084000180000F089FF9023DB050022F421180036
:1008500000F082FF924B00223021180000F07CFF54
:100860009149924B0022180000F076FF904B012234
:100870000421180000F070FFCE239B008B4801225A
:10088000190000F069FF3B19802292011A603B19A0
:1008900001225A603B1901229A603B190022DA605A
:1008A0003B197F4A1900100000F0E6FD21007B187B
:1008B00007221A607B18882252035A600C003B19E9
:1008C00002229A603B19764A1900100000F0D4FD0C
:1008D0003B190A221A603B1901225A603B19012276
:1008E0009A603B190322DA603A199023DB05110064
:1008F000180000F0C1FD3B19F4221A603B190122D7
:100900005A603B1902229A603B190022DA603A19B8
:100910009023DB051100180000F0AEFD21007B18CC
:1009200010221A607B18842292035A600C003B1933
:1009300001229A603B195F4A1900100000F09CFDEB
:100940003B1930221A603B1901225A603B190222DE
:100950009A603B190022DA603B19514A19001000D5
:1009600000F08AFD3B19504A1A603B1901225A6077
:100970003B1902229A603B190022DA603B194B4A6C
:100980001900100000F078FD3B19E022D2011A6036
:100990003B19882252035A603B1902229A603B1984
:1009A000424A1900100000F067FD3B19E0221201D5
:1009B0001A603B19882252035A603B1902229A603E
:1009C0003A199023DB051100180000F055FD2100B5
:1009D0007B18C0221A607B18882252035A607B1849
:1009E00002229A600C007B18324A1900100000F0B5
:1009F00043FD21007B18802212021A600C003B1973
:100A000001225A603B1901229A603B190022DA60E8
:100A10003A199023DB051100180000F02DFD21008C
:100A20007B18E02252011A600C003B1901225A6027
:100A30003B1901229A603B190322DA603B19184ADC
:100A40001900100000F018FD3B1904221A603B1930
:100A500001225A603B1901229A603B190322DA6095
:100A60003B19134A1900100000F006FD21007B1805
:100A7000CE2292001A607B1801225A607B18012254
:100A80009A607B180322DA607B18084A190010006C
:100A900000F0F2FCC046BD460BB090BD0010024015
:100AA000000800480A800000070C0000000400480D
:100AB000000C00480014004880B582B000AF02006E
:100AC000BB1D1A80BB1D1B888022D201934200D11E
:100AD00069E08022D201934200DD62E1802292012E
:100AE000934200D191E080229201934200DD58E1CF
:100AF00080225201934200D19FE080225201934212
:100B000000DD4EE180221201934200D1ECE0802210
:100B10001201934200DD44E18022D200934200D1D1
:100B200011E18022D200934200DD3AE1802292005E
:100B3000934200D1F1E080229200934200DD30E147
:100B4000802B00D115E100DD2BE1402B00D18EE0A0
:100B500000DD26E1102B00D127E100DD21E1042B8F
:100B600000D1A2E000DD1CE1012B02D0022B32D02B
:100B700017E19B4B1B685A1C994B1A60994B1B68D9
:100B8000002B00D013E1964B1B68012B00D00EE127
:100B9000954B01221A8080231B01944A19001000F2
:100BA00000F062F903E18E4B1B685A1C8C4B1A60F3
:100BB0008C4B1B68012B00D0FBE0894B1B68012B81
:100BC00000D0F6E0884B01225A80894B082118009A
:100BD00000F04AF9EDE0824B1B685A1C804B1A600A
:100BE000804B1B68022B00D0E5E07D4B1B68012B7E
:100BF00000D0E0E07C4B01229A808023DB007B4A1E
:100C00001900100000F030F9D5E0754B1B685A1C34
:100C1000734B1A60734B1B68032B00D0CDE0704BF5
:100C20001B68012B00D0C8E06F4B0122DA80714BAA
:100C30000421180000F018F9BFE0694B1B685A1C2A
:100C4000674B1A60674B1B68042B00D0B7E0644BFE
:100C50001B68012B00D0B2E0634B01221A81802374
:100C60005B01624A1900100000F0FEF8A7E05C4B3F
:100C70001B685A1C5A4B1A605A4B1B68052B00D034
:100C80009FE0574B1B68012B04D0554B1B68022B70
:100C900000D096E080239B00554A1900100000F018
:100CA000E3F8514B01225A818BE04D4B1B685A1CD3
:100CB0004B4B1A604B4B1B68062B00D083E0484B14
:100CC0001B68012B04D0464B1B68022B00D07AE036
:100CD000454B01229A8180231A029023DB051100E3
:100CE000180000F0C1F86EE03D4B1B685A1C3C4BED
:100CF0001A603C4B1B68072B00D066E0384B1B6822
:100D0000012B62D1384B0122DA8180239B01374AC3
:100D10001900100000F0A8F857E0314B1B685A1C6E
:100D20002F4B1A602F4B1B68082B50D12C4B1B6884
:100D3000012B4CD12C4B01221A822D4B1021180073
:100D400000F092F843E0264B1B685A1C244B1A60B3
:100D5000244B1B68092B3CD1214B1B68012B38D13C
:100D6000214B01225A82224B2021180000F07CF8EE
:100D70002FE01B4B1B685A1C194B1A60194B1B6840
:100D80000A2B28D1164B1B68012B24D1164B0122AC
:100D90009A8280235B00164A1900100000F064F864
:100DA00019E0154B00221A7016E0C04614E0C04648
:100DB00012E0C04610E0C0460EE0C0460CE0C0465F
:100DC0000AE0C04608E0C04606E0C04604E0C0466F
:100DD00002E0C04600E0C046C046BD4602B080BD4D
:100DE000E0010020DC010020C401002000080048D0
:100DF00000040048000C0048F001002080B582B0DB
:100E000000AF0200BB1D1A80BB1D1B880A2B1ED819
:100E10009A00124BD3181B689F46114B19E0114BD7
:100E200017E00F4B15E00E4B13E00D4B11E0902334
:100E3000DB050EE00A4B0CE09023DB0509E0902374
:100E4000DB0506E09023DB0503E0064B01E0902381
:100E5000DB051800BD4602B080BDC0465C3A000804
:100E6000000400480008004880B582B000AF7860F8
:100E70000A00BB1C1A80BB1C19887B680022180062
:100E800000F06AFCC046BD4602B080BD80B500AF30
:100E9000FEE7000080B582B000AF0F4B9A690E4BA1
:100EA00001210A439A610C4B9B69012213407B602C
:100EB0007B68094BDA69084B802149050A43DA61EE
:100EC000054BDA6980235B0513403B603B68C046F5
:100ED000BD4602B080BDC0460010024080B582B061
:100EE00000AF78607B681B68064A934206D1064BC8
:100EF0001A6A054B802109020A431A62C046BD46A0
:100F000002B080BD002800400010024080B584B0CF
:100F100000AF78607B681B68134A93420CD1134B77
:100F2000DA69124B10210A43DA61104BDB69102297
:100F30001340FB60FB6812E07B681B680C4A93421D
:100F40000DD10A4BDA69094B802149000A43DA6165
:100F5000064BDA6980235B001340BB60BB68C04668
:100F6000BD4604B080BDC0460010004000100240E5
:100F70000020004090B58BB000AF786014243B197E
:100F8000180014231A00002102F080F87B681B6807
:100F90001C4A934231D11C4B9A691B4B8021C901D9
:100FA0000A439A61184B9A698023DB0113403B6125
:100FB0003B69154B5A69144B8021C9020A435A6197
:100FC000114B5A698023DB021340FB60FB68210050
:100FD0007B18C0221A607B1802225A607B180022FC
:100FE0009A607B180322DA607B1800221A617B1852
:100FF000064A1900100000F03FFAC046BD460BB08B
:1010000090BDC04600380140001002400004004876
:1010100080B500AFFEE780B500AFFEE780B500AF5A
:10102000C046BD4680BD80B500AFC046BD4680BD50
:1010300080B500AF00F002F9C046BD4680BD80B566
:1010400000AFC046BD4680BD80B500AF012000F0B6
:10105000A1FB022000F09EFBC046BD4680BD80B5CE
:1010600000AF042000F096FBC046BD4680BD80B5B1
:1010700000AF102000F08EFB402000F08BFB8020A2
:1010800000F088FB80239B00180000F083FB802386
:10109000DB00180000F07EFB80231B01180000F02D
:1010A00079FB80235B01180000F074FB80239B0117
:1010B000180000F06FFB8023DB01180000F06AFBD2
:1010C000C046BD4680BD000080B500AF034B180090
:1010D00001F0EFF9C046BD4680BDC046AC0000201F
:1010E00080B586B000AF7860144A154BD31A7B6187
:1010F0007B693B61134B1B68002B02D1114B124AD9
:101100001A60104B1A687B68D3183A699A4207D262
:1011100001F092FF03000C221A6001235B4209E0F8
:10112000084B1B68FB60074B1A687B68D218054B9D
:101130001A60FB681800BD4606B080BD0020002084
:1011400000040000F40100201002002080B500AF70
:10115000C046BD4680BD00000D4885460D480E497D
:101160000E4A002302E0D458C4500433C4188C4201
:10117000F9D30B4A0B4C002301E013600432A24266
:10118000FBD3FFF7E3FF01F05DFFFFF75BF8FEE73E
:10119000002000200000002070000020DC3A000841
:1011A000700000200C020020FEE7000080B500AFB8
:1011B000074B1A68064B10210A431A60032000F0FF
:1011C00009F8FFF767FE00231800BD4680BDC04642
:1011D0000020024090B583B000AF7860144B1C68CB
:1011E000144B1B781900FA239800FEF79FFF0300A9
:1011F00019002000FEF79AFF0300180000F02FF9F5
:10120000031E01D001230FE07B68032B0BD8796804
:1012100001235B420022180000F0FCF8064B7A68BC
:101220001A60002300E001231800BD4603B090BD02
:1012300000000020080000200400002080B500AF5E
:10124000054B1B781A00054B1B68D218034B1A601C
:10125000C046BD4680BDC04608000020F801002001
:1012600080B500AF024B1B681800BD4680BDC0466C
:10127000F801002080B584B000AF7860FFF7F0FF80
:101280000300BB607B68FB60FB68013305D00A4B41
:101290001B781A00FB689B18FB60C046FFF7E0FF55
:1012A0000200BB68D31AFA689A42F7D8C046C04613
:1012B000BD4604B080BDC0460800002080B582B0A5
:1012C00000AF0200FB1D1A70FB1D1B787F2B09D895
:1012D000FB1D1B781A001F231A40044B012191406B
:1012E0000A001A60C046BD4602B080BD00E100E0C1
:1012F00090B583B000AF02003960FB1D1A70FB1D72
:101300001B787F2B28D82F4AFB1D1B785BB29B08CC
:10131000C0339B009B58FA1D1278110003220A402B
:10132000D200FF2191400A00D2431A4011003B68CD
:101330009B01FF221A40FB1D1B781800032303406A
:10134000DB009A401F48FB1D1B785BB29B080A43D9
:10135000C0339B001A5031E01B4AFB1D1B7819005B
:101360000F230B40083B9B0806339B00D318043324
:101370001B68FA1D1278110003220A40D200FF21D7
:1013800091400A00D2431A4011003B689B01FF22A2
:101390001A40FB1D1B78180003230340DB009A4012
:1013A0000948FB1D1B781C000F232340083B9B08AA
:1013B0000A4306339B00C31804331A60C046BD4677
:1013C00003B090BD00E100E000ED00E080B582B028
:1013D00000AF78607B685A1E80235B049A4201D379
:1013E000012310E00A4B7A68013A5A6001235B42FC
:1013F00003211800FFF77CFF054B00229A60044B85
:1014000007221A6000231800BD4602B080BDC04606
:1014100010E000E080B584B000AFB9607A600F21C1
:101420007B18021C1A70BA687B181B785BB211001B
:101430001800FFF75DFFC046BD4604B080BD80B513
:1014400082B000AF0200FB1D1A70FB1D1B785BB25F
:101450001800FFF733FFC046BD4602B080BD80B51F
:1014600082B000AF78607B681800FFF7AFFF030021
:101470001800BD4602B080BD80B586B000AF786070
:10148000396000237B614FE13B681B6801217A6969
:1014900091400A001340FB60FB68002B00D140E143
:1014A0003B685B6803221340012B05D03B685B68F7
:1014B00003221340022B30D17B689B683B617B6920
:1014C0005B0003229A401300DA433B6913403B61FF
:1014D0003B68DA687B695B009A4013003A69134302
:1014E0003B617B683A699A607B685B683B6101227B
:1014F0007B699A401300DA433B6913403B613B68C8
:101500005B681B0901221A407B699A4013003A6903
:1015100013433B617B683A695A603B685B6803220E
:101520001340032B17D07B68DB683B617B695B0052
:1015300003229A401300DA433B6913403B613B6846
:101540009A687B695B009A4013003A6913433B61D8
:101550007B683A69DA603B685B6803221340022BC0
:1015600023D17B69DA087B6808329200D3583B614B
:101570007B69072213409B000F229A401300DA4335
:101580003B6913403B613B681A697B6907210B404B
:101590009B009A4013003A6913433B617B69DA0868
:1015A0007B68083292003969D1507B681B683B61C7
:1015B0007B695B0003229A401300DA433B691340C6
:1015C0003B613B685B6803221A407B695B009A4081
:1015D00013003A6913433B617B683A691A603B68C0
:1015E0005A68C0239B02134000D19AE0544B9A6979
:1015F000534B01210A439A61514B9B6901221340CD
:10160000BB60BB684F4A7B699B0802339B009B58B9
:101610003B617B69032213409B000F229A40130019
:10162000DA433B6913403B617A689023DB059A42B9
:1016300013D07B68444A93420DD07B68434A93425F
:1016400007D07B68424A934201D1032306E0052379
:1016500004E0022302E0012300E000237A69032171
:101660000A40920093403A6913433B6135497B69D4
:101670009B0802339B003A695A50364B1B683B610A
:10168000FB68DA433B6913403B613B685A6880233F
:101690005B02134003D03A69FB6813433B612D4B57
:1016A0003A691A602B4B5B683B61FB68DA433B6924
:1016B00013403B613B685A6880239B02134003D070
:1016C0003A69FB6813433B61224B3A695A60214BEC
:1016D0009B683B61FB68DA433B6913403B613B68B5
:1016E0005A6880235B03134003D03A69FB681343B5
:1016F0003B61184B3A699A60164BDB683B61FB68AB
:10170000DA433B6913403B613B685A6880239B0383
:10171000134003D03A69FB6813433B610D4B3A69B0
:10172000DA607B6901337B613B681A687B69DA4068
:10173000131E00D0A8E6C046C046BD4606B080BD18
:10174000001002400000014000040048000800486A
:10175000000C00480004014080B582B000AF786002
:1017600008001100BB1C021C1A807B1C0A1C1A708A
:101770007B1C1B78002B04D0BB1C1A887B689A61E9
:1017800003E0BB1C1A887B689A62C046BD4602B063
:1017900080BD000080B582B000AF0200BB1D1A8082
:1017A000094B5B69BA1D1288134008D0064BBA1D5D
:1017B00012885A61BB1D1B881800FFF77DF9C046CF
:1017C000BD4602B080BDC0460004014080B588B06F
:1017D00000AF78607B68002B01D1012301E37B68B7
:1017E0001B680122134000D18DE0C34B5B680C22C3
:1017F0001340042B0ED0C04B5B680C221340082B07
:1018000016D1BD4B5A6880235B021A4080235B02CD
:101810009A420DD1B84B1A6880239B02134000D125
:1018200070E07B685B68002B00D06BE00123D8E29E
:101830007B685B68012B07D1AF4B1A68AE4B8021E8
:1018400049020A431A602FE07B685B68002B0CD1C9
:10185000A94B1A68A84BA9490A401A60A64B1A68F6
:10186000A54BA7490A401A601EE07B685B68052B00
:101870000ED1A14B1A68A04B8021C9020A431A60FD
:101880009D4B1A689C4B802149020A431A600BE069
:10189000994B1A68984B99490A401A60964B1A68F6
:1018A000954B97490A401A607B685B68002B14D0FF
:1018B000FFF7D6FC0300BB6108E0FFF7D1FC020094
:1018C000BB69D31A642B01D903238AE28A4B1A68B5
:1018D00080239B021340F0D015E0FFF7C1FC03000A
:1018E000BB6108E0FFF7BCFC0200BB69D31A642BA4
:1018F00001D9032375E2804B1A6880239B021340B1
:10190000F0D100E0C0467B681B680222134000D182
:1019100069E0794B5B680C2213400BD0764B5B6817
:101920000C221340082B1CD1734B5A6880235B0296
:10193000134016D1704B1B680222134005D07B6800
:10194000DB68012B01D001234BE26B4B1B68F822B3
:10195000934319007B681B69DA00674B0A431A60DE
:1019600041E07B68DB68002B24D0634B1A68624B34
:1019700001210A431A60FFF773FC0300BB6108E012
:10198000FFF76EFC0200BB69D31A022B01D90323B7
:1019900027E2594B1B6802221340F1D0564B1B68BB
:1019A000F822934319007B681B69DA00524B0A4303
:1019B0001A6018E0504B1A684F4B01218A431A6095
:1019C000FFF74EFC0300BB6108E0FFF749FC020093
:1019D000BB69D31A022B01D9032302E2464B1B68D1
:1019E00002221340F1D17B681B680822134036D0D5
:1019F0007B68DB69002B19D03F4B5A6A3E4B0121B3
:101A00000A435A62FFF72CFC0300BB6108E0FFF7B2
:101A100027FC0200BB69D31A022B01D90323E0E1A2
:101A2000354B5B6A02221340F1D018E0324B5A6A00
:101A3000314B01218A435A62FFF712FC0300BB615C
:101A400008E0FFF70DFC0200BB69D31A022B01D995
:101A50000323C6E1284B5B6A02221340F1D17B6865
:101A60001B680422134000D1B4E01F203B18002261
:101A70001A70214BDA6980235B05134010D11E4B8D
:101A8000DA691D4B802149050A43DA611A4BDA698C
:101A900080235B051340FB60FB683B1801221A7032
:101AA000184B1A6880235B0013401AD1154B1A6833
:101AB000144B802149000A431A60FFF7D1FB030051
:101AC000BB6108E0FFF7CCFB0200BB69D31A642BB3
:101AD00001D9032385E10B4B1A6880235B00134077
:101AE000F0D07B689B68012B0ED1034B1A6A024B26
:101AF00001210A431A6235E000100240FFFFFEFF99
:101B0000FFFFFBFF007000407B689B68002B0CD13F
:101B1000B64B1A6AB54B01218A431A62B34B1A6A53
:101B2000B24B04218A431A621CE07B689B68052B38
:101B30000CD1AE4B1A6AAD4B04210A431A62AB4B6F
:101B40001A6AAA4B01210A431A620BE0A74B1A6AD0
:101B5000A64B01218A431A62A44B1A6AA34B0421A3
:101B60008A431A627B689B68002B14D0FFF778FBCE
:101B70000300BB6109E0FFF773FB0200BB69D31AE6
:101B80009B4A934201D903232BE1984B1B6A022203
:101B90001340F0D013E0FFF763FB0300BB6109E0E3
:101BA000FFF75EFB0200BB69D31A914A934201D949
:101BB000032316E18D4B1B6A02221340F0D11F2331
:101BC000FB181B78012B05D1884BDA69874B8949B3
:101BD0000A40DA617B681B681022134063D07B687F
:101BE0005B69012B2AD1814B5A6B804B04210A433C
:101BF0005A637E4B5A6B7D4B01210A435A63FFF7B0
:101C00002FFB0300BB6108E0FFF72AFB0200BB6962
:101C1000D31A022B01D90323E3E0744B5B6B02223E
:101C20001340F1D0714B5B6BF822934319007B6832
:101C30009B69DA006D4B0A435A6334E07B685B6949
:101C4000053311D1694B5A6B684B04218A435A639F
:101C5000664B5B6BF822934319007B689B69DA0043
:101C6000624B0A435A631EE0604B5A6B5F4B042180
:101C70000A435A635D4B5A6B5C4B01218A435A639A
:101C8000FFF7EEFA0300BB6108E0FFF7E9FA020094
:101C9000BB69D31A022B01D90323A2E0534B5B6B20
:101CA00002221340F1D17B681B6A002B00D197E020
:101CB0004E4B5B680C221340082B00D16BE07B6815
:101CC0001B6A022B4CD1494B1A68484B4A490A40BF
:101CD0001A60FFF7C5FA0300BB6108E0FFF7C0FA1E
:101CE0000200BB69D31A022B01D9032379E03F4BD1
:101CF0001A6880239B041340F0D13C4BDB6A0F220F
:101D0000934319007B68DA6A384B0A43DA62374B2F
:101D10005B683A4A134019007B689A6A7B685B6A81
:101D20001A43324B0A435A60304B1A682F4B8021BA
:101D300049040A431A60FFF793FA0300BB6108E005
:101D4000FFF78EFA0200BB69D31A022B01D90323D5
:101D500047E0264B1A6880239B041340F0D03FE0F5
:101D6000224B1A68214B24490A401A60FFF778FA7F
:101D70000300BB6108E0FFF773FA0200BB69D31AE6
:101D8000022B01D903232CE0184B1A6880239B04F3
:101D90001340F0D124E07B681B6A012B01D10123A1
:101DA0001FE0124B5B687B61104BDB6A3B617A6919
:101DB00080235B021A407B685B6A9A420ED13B69C2
:101DC0000F221A407B68DB6A9A4207D17A69F023B6
:101DD0009B031A407B689B6A9A4201D0012300E072
:101DE00000231800BD4608B080BDC0460010024068
:101DF00088130000FFFFFFEFFFFFFFFEFFFFC2FFA2
:101E000080B584B000AF786039607B68002B01D169
:101E10000123B3E05B4B1B68012213403A689A42EE
:101E200011D9584B1B68012293431900554B3A684E
:101E30000A431A60534B1B68012213403A689A42C6
:101E400001D001239AE07B681B680222134015D061
:101E50007B681B680422134006D04B4B5A684A4BE0
:101E6000E021C9000A435A60474B5B68F022934364
:101E700019007B689A68444B0A435A607B681B6868
:101E80000122134040D07B685B68012B07D13E4B99
:101E90001A6880239B02134014D101236EE07B68F3
:101EA0005B68022B07D1384B1A6880239B041340D0
:101EB00008D1012362E0344B1B680222134001D198
:101EC00001235BE0304B5B680322934319007B687E
:101ED0005A682D4B0A435A60FFF7C2F90300FB60B2
:101EE00009E0FFF7BDF90200FB68D31A274A9342C5
:101EF00001D9032342E0244B5B680C221A407B6823
:101F00005B689B009A42ECD11E4B1B680122134078
:101F10003A689A4211D21B4B1B6801229343190065
:101F2000184B3A680A431A60164B1B68012213408B
:101F30003A689A4201D0012320E07B681B680422A2
:101F4000134009D0104B5B68114A134019007B689D
:101F5000DA680D4B0A435A6000F020F801000A4B82
:101F60005B681B090F2213400A4AD35C0A00DA405F
:101F7000094B1A600320FFF72DF900231800BD4616
:101F800004B080BD00200240001002408813000011
:101F9000FFF8FFFF883A00080000002090B58FB0DE
:101FA00000AF1423FB182B4A13CA13C312681A601C
:101FB0003B1D294A13CA13C312681A600023FB622F
:101FC0000023BB6200237B6300237B6200233B630F
:101FD000224B5B68FB62FB6A0C221340042B02D08D
:101FE000082B03D02DE01E4B3B632DE0FB6A9B0CBE
:101FF0000F2213401422BA18D35C7B62174BDB6AA2
:102000000F2213403A1DD35CBB62FA6A80235B0245
:10201000134009D0B96A1248FEF788F803001A0085
:102020007B6A53437B6309E0796A0A005201521AC2
:1020300093019B1ADB005B181B027B637B6B3B638A
:1020400002E0074B3B63C0463B6B1800BD460FB038
:1020500090BDC046243A0008343A000800100240FF
:1020600000127A0080B500AF024B1B681800BD4615
:1020700080BDC0460000002080B500AFFFF7F2FF32
:102080000100064B5B681B0A07221340044AD35C1D
:10209000D9400B001800BD4680BDC046001002406C
:1020A000983A000880B586B000AF786000233B61A5
:1020B0000023FB607B681A6880235B02134000D119
:1020C0008EE017203B1800221A70574BDA698023E4
:1020D0005B05134010D1544BDA69534B80214905FD
:1020E0000A43DA61504BDA6980235B051340BB6019
:1020F000BB683B1801221A704C4B1A6880235B00A6
:1021000013401AD1494B1A68484B802149000A43B1
:102110001A60FFF7A5F803003B6108E0FFF7A0F89D
:1021200002003B69D31A642B01D9032377E03F4BAC
:102130001A6880235B001340F0D03B4B1A6AC0231F
:102140009B001340FB60FB68002B34D07B685A680F
:10215000C0239B001340FA689A422CD0324B1B6A72
:10216000334A1340FB60304B1A6A2F4B80214902DF
:102170000A431A622C4B1A6A2B4B2E490A401A62E8
:10218000294BFA681A62FB680122134013D0FFF74B
:1021900067F803003B6109E0FFF762F802003B6962
:1021A000D31A254A934201D9032338E01E4B1B6AF8
:1021B00002221340F0D01C4B1B6A1D4A1340190029
:1021C0007B685A68184B0A431A621723FB181B785E
:1021D000012B05D1144BDA69134B18490A40DA6117
:1021E0007B681B680122134009D00F4B1B6B032235
:1021F000934319007B689A680B4B0A431A637B6808
:102200001B682022134009D0074B1B6B10229343FD
:1022100019007B68DA68044B0A431A63002318002C
:10222000BD4606B080BDC0460010024000700040B0
:10223000FFFCFFFFFFFFFEFF88130000FFFFFFEF23
:1022400080B582B000AF78607B68002B01D101239C
:1022500081E07B685B7FDBB2002B06D17B680022CC
:102260001A777B681800FEF739FE7B6802225A77DE
:102270007B681B68CA225A627B681B6853225A62B9
:102280007B68180000F099F8031E08D07B681B6873
:10229000FF225A627B6804225A7701235BE07B6845
:1022A0001B689A687B681B682D490A409A607B68A6
:1022B0001B6899687B685A687B681B691A437B684E
:1022C0005B691A437B681B680A439A607B681B68DA
:1022D0007A68D2681A617B681B6819697B689B6899
:1022E0001A047B681B680A431A617B681B68DA68FA
:1022F0007B681B6880218A43DA607B681B689B6867
:10230000202213400ED17B68180000F02DF8031E28
:1023100008D07B681B68FF225A627B6804225A77C8
:10232000012318E07B681B681A6C7B681B680D49E9
:102330000A401A647B681B68196C7B689A697B6821
:102340001B680A431A647B681B68FF225A627B6819
:1023500001225A7700231800BD4602B080BDC04656
:10236000BFFF8FFFFFFFFBFF80B584B000AF786039
:102370000023FB607B681B68DA687B681B68A02110
:102380008A43DA60FEF76CFF0300FB600AE0FEF7A9
:1023900067FF0200FB68D21AFA239B009A4201D918
:1023A000032306E07B681B68DB6820221340EED025
:1023B00000231800BD4604B080BD80B584B000AFD6
:1023C00078600023FB607B681B68DB684022134059
:1023D0001AD17B681B6801225242DA60FEF740FF87
:1023E0000300FB600AE0FEF73BFF0200FB68D21A25
:1023F000FA239B009A4201D9032306E07B681B68FD
:10240000DB6840221340EED000231800BD4604B024
:1024100080BD80B582B000AF78607B68002B01D1B1
:10242000012342E07B683D229B5CDBB2002B07D19D
:102430007B683C22002199547B681800FEF766FDFA
:102440007B683D22022199547B681A687B680433BB
:102450001900100000F06CF97B68462201219954A4
:102460007B683E22012199547B683F2201219954C7
:102470007B684022012199547B68412201219954B3
:102480007B684222012199547B684322012199549F
:102490007B684422012199547B684522012199548B
:1024A0007B683D220121995400231800BD4602B0EB
:1024B00080BD80B582B000AF78607B681B681B6907
:1024C00002221340022B24D17B681B68DB680222A6
:1024D0001340022B1DD17B681B68032252421A61F4
:1024E0007B6801221A777B681B689B690322134073
:1024F00004D07B68180000F002F907E07B68180040
:1025000000F0F5F87B68180000F001F97B68002204
:102510001A777B681B681B6904221340042B25D1A2
:102520007B681B68DB6804221340042B1ED17B6888
:102530001B68052252421A617B6802221A777B6867
:102540001B689A69C0239B00134004D07B68180065
:1025500000F0D5F807E07B68180000F0C8F87B6849
:10256000180000F0D4F87B6800221A777B681B689B
:102570001B6908221340082B24D17B681B68DB6889
:1025800008221340082B1DD17B681B680922524288
:102590001A617B6804221A777B681B68DB69032257
:1025A000134004D07B68180000F0A9F807E07B68AE
:1025B000180000F09CF87B68180000F0A8F87B6811
:1025C00000221A777B681B681B6910221340102BAE
:1025D00025D17B681B68DB6810221340102B1ED1AD
:1025E0007B681B68112252421A617B6808221A77A5
:1025F0007B681B68DA69C0239B00134004D07B68AA
:10260000180000F07CF807E07B68180000F06FF815
:102610007B68180000F07BF87B6800221A777B68E3
:102620001B681B6901221340012B0FD17B681B68BB
:10263000DB6801221340012B08D17B681B68022252
:1026400052421A617B68180000F049F87B681B68E9
:102650001B6980221340802B0FD17B681B68DB68CD
:1026600080221340802B08D17B681B688122524254
:102670001A617B68180000F0D9F87B681B681B6939
:1026800040221340402B0FD17B681B68DB6840223F
:102690001340402B08D17B681B68412252421A61CB
:1026A0007B68180000F03BF87B681B681B692022E0
:1026B0001340202B0FD17B681B68DB68202213405E
:1026C000202B08D17B681B68212252421A617B684B
:1026D000180000F0A3F8C046BD4602B080BD80B52A
:1026E00082B000AF7860C046BD4602B080BD80B504
:1026F00082B000AF7860C046BD4602B080BD80B5F4
:1027000082B000AF7860C046BD4602B080BD80B5E3
:1027100082B000AF7860C046BD4602B080BD80B5D3
:1027200082B000AF7860C046BD4602B080BD0000F8
:1027300080B584B000AF786039607B681B68FB604F
:102740007B682F4A934203D07B682E4A934208D17C
:10275000FB6870229343FB603B685B68FA68134335
:10276000FB607B68264A934213D07B68254A9342DC
:102770000FD07B68244A93420BD07B68234A934254
:1027800007D07B68224A934203D07B68214A934258
:1027900008D1FB68204A1340FB603B68DB68FA689D
:1027A0001343FB60FB68802293431A003B685B691C
:1027B0001343FB607B68FA681A603B689A687B6821
:1027C000DA623B681A687B689A627B680C4A9342BB
:1027D0000BD07B680D4A934207D07B680C4A93422A
:1027E00003D07B680B4A934203D13B681A697B682C
:1027F0001A637B6801225A61C046BD4604B080BDA1
:10280000002C014000040040002000400040014036
:102810000044014000480140FFFCFFFF80B582B04A
:1028200000AF7860C046BD4602B080BD80B582B0C2
:1028300000AF7860C046BD4602B080BD80B582B0B2
:1028400000AF78607B68002B01D1012344E07B68F6
:102850009B6F002B07D17B687422002199547B6801
:102860001800FEF787FB7B6824229A677B681B6849
:102870001A687B681B6801218A431A607B6818000C
:1028800000F0DAF80300012B01D1012324E07B687A
:102890005B6A002B03D07B68180000F00DFA7B68A0
:1028A0001B685A687B681B680D490A405A607B6840
:1028B0001B689A687B681B6808218A439A607B685A
:1028C0001B681A687B681B6801210A431A607B68D1
:1028D000180000F0A5FA03001800BD4602B080BD44
:1028E000FFF7FFFF80B58AB002AFF860B9603B60C8
:1028F000BB1D1A80FB689B6F202B00D096E0BB6845
:10290000002B03D0BB1D1B88002B01D101238EE0BF
:10291000FB689A6880235B019A4209D1FB681B69B6
:10292000002B05D1BB680122134001D001237EE0BA
:10293000FB6874229B5C012B01D1022377E0FB68CA
:10294000742201219954FB68802200219950FB6870
:1029500021229A67FEF784FC03007B61FB68BA1DA5
:10296000502112885A52FB68BA1D522112885A52BD
:10297000FB689A6880235B019A4208D1FB681B6957
:10298000002B04D10023FB61BB68BB6103E0BB6883
:10299000FB610023BB61FB687422002199542DE088
:1029A0007A69F8683B68009313000022802100F0E8
:1029B0007FFA031E01D0032339E0FB69002B0BD102
:1029C000BB691A88FB681B68D205D20D92B21A85C2
:1029D000BB690233BB6108E0FB691A78FB681B68BE
:1029E00092B21A85FB690133FB61FB6852229B5A44
:1029F0009BB2013B99B2FB6852229952FB6852226A
:102A00009B5A9BB2002BCBD17A69F8683B68009344
:102A100013000022402100F04BFA031E01D00323D3
:102A200005E0FB6820229A67002300E002231800DB
:102A3000BD4608B080BD000080B588B000AF7860AA
:102A40001E23FB1800221A707B689A687B681B693A
:102A50001A437B685B691A437B68DB6913437B61BC
:102A60007B681B681B688D4A134019007B681B68D4
:102A70007A690A431A607B681B685B68884A13405E
:102A800019007B68DA687B681B680A435A607B68B8
:102A90009B697B617B681B6A7A6913437B617B68F6
:102AA0001B689B687F4A134019007B681B687A6922
:102AB0000A439A607B681B687B4A934227D17B4B11
:102AC0001B6B03221340032B0DD01BD8022B14D0F9
:102AD00018D8002B02D0012B0AD013E01F23FB18BB
:102AE00000221A7021E01F23FB1802221A701CE03A
:102AF0001F23FB1804221A7017E01F23FB1808225B
:102B00001A7012E01F23FB1810221A700DE07B6868
:102B10001B68674A934204D11F23FB1800221A70D6
:102B200003E01F23FB1810221A707B68DA698023E8
:102B30001B029A425DD11F23FB181B78082B15D06E
:102B400018DC042B0DD015DC002B02D0022B05D095
:102B500010E0FFF791FA0300BB6112E0554BBB6137
:102B60000FE0FFF71BFA0300BB610AE080231B02A2
:102B7000BB6106E00023BB611E23FB1801221A7013
:102B8000C046BB69002B00D17BE0BB695A007B6863
:102B90005B685B08D2187B685B6819001000FDF762
:102BA000C5FA03009BB23B613B690F2B1CD93A6904
:102BB00080235B029A4217D23B699AB20E203B18DF
:102BC0000F218A431A803B695B089BB2072213409E
:102BD00099B23B183A1812880A431A807B681B681E
:102BE0003A181288DA604CE01E23FB1801221A7092
:102BF00047E01F23FB181B78082B15D018DC042B8B
:102C00000DD015DC002B02D0022B05D010E0FFF711
:102C100033FA0300BB6112E0264BBB610FE0FFF704
:102C2000BDF90300BB610AE080231B02BB6106E023
:102C30000023BB611E23FB1801221A70C046BB692A
:102C4000002B1ED07B685B685A08BB69D2187B6872
:102C50005B6819001000FDF769FA03009BB23B6145
:102C60003B690F2B09D93A6980235B029A4204D24F
:102C70007B681B683A69DA6003E01E23FB180122B7
:102C80001A707B6800225A667B6800229A661E23AF
:102C9000FB181B781800BD4608B080BDF369FFFF24
:102CA000FFCFFFFFFFF4FFFF00380140001002409C
:102CB0000044004000127A0080B582B000AF786016
:102CC0007B685B6A012213400BD07B681B685B68E2
:102CD0004A4A134019007B689A6A7B681B680A435A
:102CE0005A607B685B6A022213400BD07B681B68CA
:102CF0005B68434A134019007B68DA6A7B681B688B
:102D00000A435A607B685B6A042213400BD07B68DD
:102D10001B685B683B4A134019007B681A6B7B6831
:102D20001B680A435A607B685B6A082213400BD019
:102D30007B681B685B68344A134019007B685A6BD8
:102D40007B681B680A435A607B685B6A10221340E9
:102D50000BD07B681B689B682C4A134019007B686A
:102D60009A6B7B681B680A439A607B685B6A2022C7
:102D700013400BD07B681B689B68254A13401900E1
:102D80007B68DA6B7B681B680A439A607B685B6AC6
:102D9000402213401DD07B681B685B681D4A1340AE
:102DA00019007B681A6C7B681B680A435A607B6851
:102DB0001A6C80235B039A420BD17B681B685B68AB
:102DC000154A134019007B685A6C7B681B680A43DC
:102DD0005A607B685B6A802213400BD07B681B685B
:102DE0005B680E4A134019007B689A6C7B681B680D
:102DF0000A435A60C046BD4602B080BDFFFFFDFFDA
:102E0000FFFFFEFFFFFFFBFFFF7FFFFFFFEFFFFF67
:102E1000FFDFFFFFFFFFEFFFFFFF9FFFFFFFF7FF5A
:102E200080B586B002AF78607B688022002199501F
:102E3000FEF716FA0300FB607B681B681B6808221C
:102E40001340082B0CD1FB68802291037868174A45
:102E50000092002200F02CF8031E01D0032321E091
:102E60007B681B681B6804221340042B0CD1FB6891
:102E70008022D10378680D4A0092002200F018F8F1
:102E8000031E01D003230DE07B6820229A677B6834
:102E90002022DA677B6800221A667B687422002190
:102EA000995400231800BD4604B080BDFFFFFF0108
:102EB00080B594B000AFF860B9603B60FB1D1A703C
:102EC000A3E0BB6D013300D19FE0FEF7C9F902001A
:102ED0003B68D31ABA6D9A4202D3BB6D002B3DD129
:102EE000EFF31083BB62BB6A7B640123FB62FB6A66
:102EF00083F31088C046FB681B681A68FB681B6870
:102F00004C490A401A607B6C3B633B6B83F310882F
:102F1000C046EFF310837B637B6B3B640123BB6391
:102F2000BB6B83F31088C046FB681B689A68FB681C
:102F30001B6801218A439A603B6CFB63FB6B83F344
:102F40001088C046FB6820229A67FB682022DA6757
:102F5000FB68742200219954032367E0FB681B6817
:102F60001B680422134050D0FB681B68DA69802379
:102F70001B011A4080231B019A4246D1FB681B6843
:102F8000802212011A62EFF310833B613B69FB64FC
:102F900001237B617B6983F31088C046FB681B6853
:102FA0001A68FB681B6823490A401A60FB6CBB6106
:102FB000BB6983F31088C046EFF31083FB61FB69A4
:102FC000BB6401233B623B6A83F31088C046FB6805
:102FD0001B689A68FB681B6801218A439A60BB6C76
:102FE0007B627B6A83F31088C046FB6820229A6765
:102FF000FB682022DA67FB68802220219950FB6859
:10300000742200219954032310E0FB681B68DB69DC
:10301000BA681340BA68D31A5A425341DBB21A0055
:10302000FB1D1B789A4200D14BE700231800BD46D8
:1030300014B080BD5FFEFFFF014B18687047C046AB
:103040000C00002070B500260C4D0D4C641BA41024
:10305000A64209D1002600F08BFC0A4D0A4C641BE5
:10306000A410A64205D170BDB300EB5898470136B5
:10307000EEE7B300EB5898470136F2E7D43A000880
:10308000D43A0008D43A0008D83A0008030082185D
:10309000934200D1704719700133F9E70EB400B5BF
:1030A0000B499CB01DAB0290069007910491094812
:1030B000094904CB0591006802A9019300F070F85A
:1030C0000023029A13701CB008BC03B01847C04616
:1030D000FFFFFF7F0C0000200802FFFFF0B58E68A5
:1030E00085B007000C00039201939E423CD89023C8
:1030F0008A89DB001A4234D00969236860695B1A47
:10310000029303234343DD0FED18019B0298013323
:103110001B186D10AB4200D91D00530532D5290094
:10312000380000F053FB061E09D10C233B604023FE
:103130000120A28940421343A38105B0F0BD029A49
:10314000216900F0BAFAA389144A1A408023134374
:10315000A381029B2661F61826606561019EED1A27
:10316000A560019B9E4200D9019E32000399206810
:1031700000F0ACFAA36800209B1BA36023689E1993
:103180002660DAE72A00380000F096FB061EE0D140
:103190003800216900F0AEFAC7E7C0467FFBFFFFA9
:1031A000F0B5A1B003901D008B890F0016001B061F
:1031B00011D50B69002B0ED1402100F007FB3860C0
:1031C0003861002805D10C23039A0138136021B01F
:1031D000F0BD40237B61002308AC6361203363763C
:1031E0001033A376079535002B78002B01D0252BC3
:1031F00047D1AB1B0593B5420CD032003900039880
:10320000FFF76CFF431C00D1AEE06269059B94465A
:10321000634463612B78002B00D1A5E001220023D9
:103220005242626004A9543252186E1C2360E3605B
:10323000A3601370A36505223178544800F032FA78
:10324000751C00281FD12268D30604D5532304A976
:103250005B1820211970130704D5532304A95B18A8
:103260002B21197033782A2B16D0350000210A2023
:10327000E3682A786E1C303A092A4ED9002911D108
:1032800017E00135B0E7414B2268C01A01238340A3
:1032900013432E002360CEE7079B191D1B6807917F
:1032A000002B01DB0B9304E05B42E360022313433A
:1032B00023602B782E2B0AD16B782A2B35D1079BD4
:1032C00002351A1D1B680792002B2BDB0993304E29
:1032D00003223000297800F0E5F9002806D04023C9
:1032E000801B83402268013513432360297806221E
:1032F00028486E1C217600F0D5F900283CD0264BDA
:10330000002B25D10722079B0733934308330793EC
:103310006369049A9B18636165E7434335000121A3
:103320009B18A6E701235B42D0E700230A201A007E
:103330000135636029786E1C3039092903D9002BC7
:10334000C5D00992C3E74243350001235218F1E783
:1033500007AB00933A002100104B039800E000BF38
:103360000490049B0133D3D1BB890D985B0600D434
:103370002DE7012040422AE707AB00933A002100E5
:10338000064B039800F07CF8EAE7C046A03A000834
:10339000A63A0008AA3A000800000000DD30000844
:1033A000F7B5150001938A680B690C0000909342F1
:1033B00000DA130022002B6043321278002A01D079
:1033C00001332B6023689B0602D52B6802332B60E8
:1033D0002268062317001F401A4227D023004333D8
:1033E0001B785A1E93412268920630D4220001991C
:1033F0000098089E4332B047431C25D0062320681E
:103400002A68E16800250340042B03D18D1AEB43A1
:10341000DB171D40A3682269934201DD9B1AED185A
:103420000027BD4220D1002010E00137E3682A6860
:103430009B1ABB42D2DD2200012301990098089E0D
:103440001932B047431CF0D101204042FEBD30206C
:10345000E1184331087021005A1C45310978A2183F
:10346000433202331170C1E7220001230199009811
:10347000089E1A32B047431CE6D00137D1E700005E
:10348000F0B58BB006920A00433207930590049280
:103490000A7E0C00109B782A07D8622A09D8002AD5
:1034A00000D1C1E0582A00D18CE0260042363270AB
:1034B00022E0100063381528F7D8FCF72DFE16001F
:1034C0001F00F6FFF6FFF6FFF6FF1F00F6FFF6FF00
:1034D000F6FFF6FFA80036009A00F6FFF6FFB900E7
:1034E000F6FF3600F6FFF6FF9E0026001A68423609
:1034F000111D1960136833700123A7E0086819686B
:103500000A1D05060BD50D681A60002D03DA2D2360
:10351000049A6D421370614B0A2703931BE00D68F8
:103520001A604106F1D52DB2EFE70D681968081D44
:1035300018602E0601D50D6803E06D06FBD50D68F9
:10354000ADB2564B082703936F2A00D002372300F1
:10355000002243331A706368A360002B03DB04224C
:10356000216891432160002D02D1049E002B0CD0D4
:10357000049E28003900FCF75FFE039B013E5B5C64
:1035800033702B0005009F42F3D9082F09D123681F
:10359000DB0706D563682269934202DC3023013ED3
:1035A0003370049B9B1B2361079B210000930598AC
:1035B000069B09AAFFF7F4FE431C4CD101204042B0
:1035C0000BB0F0BD45310A70344A03921A68216885
:1035D00020CA1A60080616D5CB0702D52023194346
:1035E00021601027002DB2D1202322689A43226047
:1035F000ADE7202209680A43226022007821453283
:103600001170274AE1E74806E6D5ADB2E4E71A684B
:103610000D68101D4969186013682E0601D51960E0
:1036200002E06D06FBD519800023049E2361BBE7F1
:103630001A68111D1960166800213000626800F0D8
:1036400031F8002801D0801B60606368236100238B
:10365000049A1370A8E72369320006990598079D1C
:10366000A847431CAAD023689B0715D4099BE06890
:103670009842A5DA1800A3E72200012306990598CD
:10368000079E1932B047431C98D00135E368099A68
:103690009B1AAB42F0DCE9E70025F7E7B13A0008F6
:1036A000C23A0008C9B28218904201D10020704786
:1036B00003788B42FBD00130F6E7002310B59A4225
:1036C00000D110BDCC5CC4540133F8E710B588427A
:1036D00002D98B18984203D3002307E08B5C8354F4
:1036E000013AFBD210BDCC5CC45401339A42FAD1EA
:1036F000F8E7000070B50500002910D00C1F236802
:10370000002B00DAE418280000F018F91D4A1368AD
:10371000002B05D163601460280000F017F970BD1C
:10372000A34208D9216860188342F3D118685B6806
:1037300041182160EEE71A005B68002B01D0A3421C
:10374000F9D911685018A0420BD1206809185018F7
:1037500011608342E0D118685B68411811605360C2
:10376000DAE7A04202D90C232B60D5E72168601864
:10377000834203D118685B6841182160636054601C
:10378000CAE7C046FC01002070B50F4E0D0031683D
:103790000400002902D100F0BFF8306029002000A9
:1037A00000F0BAF8431C0AD00323C51C9D43A8426D
:1037B00007D0291A200000F0AFF8431C01D10125E1
:1037C0006D42280070BDC04600020020F7B50322FC
:1037D000CB1C9343083306001F000C2B32D20C275E
:1037E000B94231D8300000F0A9F8324D2B681C00E6
:1037F000002C2ED139003000FFF7C6FF0400431C17
:103800001ED12C682500002D4AD123682900E31819
:103810003000019300F080F8019B834243D123687C
:103820000337FF1A03239F4308370C2F00D20C27BE
:1038300039003000FFF7A8FF431C34D02368DF199C
:10384000276013E0002BCBDA0C230025336028001F
:10385000FEBD2268D11B20D40B2917D9E21927609D
:10386000A34211D12A6063681160536030002500C3
:1038700000F06CF807220B35231D9543EA1A9D4290
:10388000E5D05B1BA350E2E75A60ECE76268A34215
:1038900001D12A60EAE75A60E8E723006468A7E7F5
:1038A0002C006D68AFE70C233000336000F04EF859
:1038B000CDE7C046FC010020F7B507000E0014005C
:1038C000002905D11100FFF781FF05002800FEBD8A
:1038D000002A03D1FFF70EFF2500F7E700F03EF8BE
:1038E0000190844203D835004308A342EED321005F
:1038F0003800FFF76BFF051EE8D0019B22009C42B9
:1039000000D91A0031002800FFF7D7FE3100380037
:10391000FFF7F0FEDAE70000002370B5064D040063
:1039200008002B60FDF7DCFB431C03D12B68002B48
:1039300000D0236070BDC0460402002010B50248CC
:1039400000F014F810BDC0460802002010B502486F
:1039500000F00DF810BDC046080200200B1F1B68C8
:10396000181F002B01DA0B58C018704770477047BA
:10397000F8B5C046F8BC08BC9E467047F8B5C046CE
:08398000F8BC08BC9E4670472C
:10398800526573756C7420746573743A200A204309
:10399800414E3148203D202578200A2043414E31B0
:1039A8004C203D202578200A2043414E3248203DB6
:1039B800202578200A2043414E324C203D2025788E
:1039C800200A20474E44203D202578200A202B310C
:1039D8003256203D202578200A20555F506F7765A4
:1039E80072203D202578200A2049474E31203D206D
:1039F8002578200A205374617274203D2025782090
:103A08000A2049474E32203D202578200A204C497B
:103A18004E203D202578200A0000000002030405FE
:103A2800060708090A0B0C0D0E0F101001020304FB
:103A380005060708090A0B0C0D0E0F1004002000DC
:103A4800000401000200800000084000100020006F
:103A5800100000001A0E00081E0E0008220E0008B2
:103A6800260E00082A0E00082E0E0008340E000844
:103A7800380E00083E0E0008440E00084A0E0008E2
:103A88000000000000000000010203040607080906
:103A98000000000001020304232D302B2000686C75
:103AA8004C00656667454647003031323334353659
:103AB8003738394142434445460030313233343592
:0C3AC800363738396162636465660000BF
:043AD400E9000008FD
:043AD800C100000821
:103ADC0000127A0004000000010000001000002019
:103AEC0000000000000000000000000000000000CA
:103AFC0000000000000000000000000000000000BA
:103B0C0000000000000000000000000000000000A9
:103B1C000000000000000000000000000000000099
:103B2C000000000000000000000000000000000089
:103B3C000000000000000000000000000000000079
:040000050800115985
:00000001FF
