:020000040800F2
:10000000002000208D0F0008A90E0008AF0E000888
:1000100000000000000000000000000000000000E0
:10002000000000000000000000000000B50E000805
:100030000000000000000000BF0E0008C90E00080C
:10004000DD0F000800000000DD0F0008DD0F0008D4
:10005000D70E0008E10E0008F70E0008070F000891
:1000600000000000DD0F0008DD0F0008DD0F0008B4
:10007000DD0F0008DD0F0008DD0F000800000000A4
:10008000DD0F0008690F000800000000DD0F000808
:10009000DD0F0008DD0F0008DD0F0008DD0F000890
:1000A000DD0F0008DD0F0008DD0F0008DD0F000880
:1000B000DD0F00080000000000000000000000004C
:1000C00010B5064C2378002B07D1054B002B02D02E
:1000D000044800E000BF0123237010BD0C00002085
:1000E00000000000C0260008044B10B5002B03D010
:1000F0000349044800E000BF10BDC04600000000F6
:1001000010000020C0260008002243088B4274D350
:1001100003098B425FD3030A8B4244D3030B8B4208
:1001200028D3030C8B420DD3FF22090212BA030C11
:100130008B4202D31212090265D0030B8B4219D3F2
:1001400000E0090AC30B8B4201D3CB03C01A524112
:10015000830B8B4201D38B03C01A5241430B8B425A
:1001600001D34B03C01A5241030B8B4201D30B0343
:10017000C01A5241C30A8B4201D3CB02C01A52416A
:10018000830A8B4201D38B02C01A5241430A8B422D
:1001900001D34B02C01A5241030A8B4201D30B0216
:1001A000C01A5241CDD2C3098B4201D3CB01C01A30
:1001B000524183098B4201D38B01C01A524143093A
:1001C0008B4201D34B01C01A524103098B4201D328
:1001D0000B01C01A5241C3088B4201D3CB00C01A95
:1001E000524183088B4201D38B00C01A524143080D
:1001F0008B4201D34B00C01A5241411A00D2014632
:10020000524110467047FFE701B5002000F006F8A4
:1002100002BDC0460029F7D076E770477047C04658
:1002200080B582B000AF00F0DBFE00F09DF800F07A
:100230009DF900F02BF900F04FF900F071F900F092
:10024000F7F8444B1B680A2B2ADC424B1B689BB215
:10025000180000F009FD3F4B1A683F4B5200D35A7B
:100260000122190001F0AFF9642000F01DFF394BA5
:100270001B689BB2180000F0F7FC364B1A68364B2F
:100280005200D35A0022190001F09DF9314B1B682E
:100290005A1C304B1A60314B1B685A1C2F4B1A608A
:1002A0002C4B1B680B2BCCD100237B600BE02C4B21
:1002B0007A685200D35A002B02D12A4B01221A70BD
:1002C0007B6801337B607B680A2BF0DD254B1B7854
:1002D000002B36D01F4B1B685A1C1E4B1A609023F4
:1002E000DB0500220821180001F06DF900233B60B6
:1002F00023E09023DB0501220421180001F063F9BB
:100300003B68022B05D1FA239B00180000F0CCFEBD
:1003100004E0FA235B00180000F0C6FE9023DB0522
:1003200000220421180001F04EF9FA235B001800A6
:1003300000F0BAFE3B6801333B603B68022BD8DD1E
:100340007FE79023DB0500220221180001F03BF932
:1003500077E7C046F8000020F8260008F4000020E7
:10036000DC000020D900002090B595B000AF20241B
:100370003B19180030231A00002102F099F91023CC
:10038000FB18180010231A00002102F091F93B001D
:10039000180010231A00002102F08AF921007B18AE
:1003A00009221A607B1801225A607B180122DA6147
:1003B0007B1802221A627B18802252025A627B1832
:1003C000802252039A627B180022DA627B1818009E
:1003D00001F032F9031E01D000F0F2FC10217B186D
:1003E00007221A607B1802225A607B1800229A604A
:1003F0007B180022DA607B180121180001F036FC1E
:10040000031E01D000F0DCFC3B00802252021A6087
:100410003B00802292005A603B00180001F058FD1A
:10042000031E01D000F0CCFCC046BD4615B090BD07
:1004300080B500AF00220021052000F005FF052057
:1004400000F017FF00220021062000F0FDFE06202C
:1004500000F00FFF00220021072000F0F5FE07202A
:1004600000F007FF00220021112000F0EDFE112016
:1004700000F0FFFE00220021042000F0E5FE042031
:1004800000F0F7FEC046BD4680BD000080B500AF5D
:100490000F4B104A1A600E4B00225A600C4B7F2201
:1004A0009A600B4BFF22DA60094B00221A61084B5D
:1004B00000225A61064B00229A61054B180001F098
:1004C000D5FD031E01D000F07BFCC046BD4680BDBB
:1004D000280000200028004080B500AF0D4B0E4AD8
:1004E0001A600C4B6822FF325A600A4B00229A6055
:1004F000084B0A4ADA60074B00229A61054B180044
:1005000001F09DFE031E01D000F05AFCC046BD461E
:1005100080BDC046480000200010004010270000A9
:1005200080B500AF0E4B0F4A1A600D4B00225A6087
:100530000B4B00229A600A4B0B4ADA60084B0022F0
:100540001A61074B00229A61054B180001F077FEF3
:10055000031E01D000F034FCC046BD4680BDC0463D
:100560009000002000200040FFFF000090B58BB0FD
:1005700000AF14243B19180014231A00002102F0C4
:1005800097F8B44B5A69B34B802109030A435A6167
:10059000B04B5A6980231B0313403B613B69AD4B51
:1005A0005A69AC4B8021C9030A435A61A94B5A6965
:1005B0008023DB031340FB60FB68A64B5A69A54B05
:1005C000802189020A435A61A24B5A6980239B0207
:1005D0001340BB60BB689F4B5A699E4B8021C90288
:1005E0000A435A619B4B5A698023DB0213407B60AC
:1005F0007B68984B5A69974B802149030A435A619B
:10060000944B5A6980235B0313403B603B689249DB
:100610009023DB050022180000F0D5FF8F49904B96
:100620000022180000F0CFFF8E498F4B00221800E7
:1006300000F0C9FF8D4B00220421180000F0C3FF19
:100640003B190822FF321A603B19882252035A6074
:100650003B1902229A603B19814A1900100000F0F0
:1006600025FE3B190A221A603B1901225A603B19E8
:1006700001229A603B190322DA603A199023DB05C4
:100680001100180000F012FE3B1904221A603B19F9
:1006900001225A603B1900229A603B190022DA605D
:1006A0003A199023DB051100180000F0FFFD21002E
:1006B0007B1810221A607B18842292035A600C0067
:1006C0003B1901229A603B19694A1900100000F099
:1006D000EDFD3B19F0221A603B1901225A603B19CB
:1006E00002229A603B190022DA603A199023DB0556
:1006F0001100180000F0DAFD3B1930221A603B1996
:1007000001225A603B1902229A603B190022DA60EA
:100710003B19534A1900100000F0C8FD3B19554A17
:100720001A603B1901225A603B1902229A603B1958
:100730000022DA603B194C4A1900100000F0B6FDA7
:100740003B19E022D2011A603B19882252035A60F9
:100750003B1902229A603B19434A1900100000F02D
:10076000A5FD3B19E02212011A603B1988225203B1
:100770005A603B1902229A603A199023DB05110056
:10078000180000F093FD21007B18C0221A607B182E
:10079000882252035A607B1802229A600C007B1850
:1007A000334A1900100000F081FD21007B188022DF
:1007B00012021A600C003B1901225A603B190122F7
:1007C0009A603B190022DA603A199023DB05110088
:1007D000180000F06BFD21007B18E02252011A6026
:1007E0000C003B1901225A603B1901229A603B1907
:1007F0000322DA603B191A4A1900100000F056FD76
:100800003B1904221A603B1901225A603B1901224C
:100810009A603B190322DA603B19144A1900100050
:1008200000F044FD21007B18FC2252001A607B1866
:1008300001225A607B1801229A607B180322DA6039
:100840007B18094A1900100000F030FDC046BD4673
:100850000BB090BD00100240FE800000301C000074
:1008600000080048FF0D000000040048000C00488C
:1008700000140048070C000080B584B000AF0200EF
:10088000BB1D1A80BB1D1A8880235B009A4206D1CB
:100890009023DB0500220821180000F094FEBB1D08
:1008A0001B888022D201934200D1C8E08022D2016D
:1008B000934200DD1AE180229201934200D1CBE005
:1008C00080229201934200DD10E180225201934286
:1008D00000D1CEE080225201934200DD06E1802269
:1008E0001201934200D180E080221201934200DD88
:1008F000FCE08022D200934200D184E08022D2002A
:10090000934200DDF2E080229200934200D188E021
:1009100080229200934200DDE8E0802B47D000DD8A
:10092000E4E0402B53D000DDE0E0102B0DD000DDE3
:10093000DCE0042B00D1C9E000DDD7E0012B00D1C1
:10094000A6E0022B00D1B2E0D0E00023FB600AE079
:10095000764B1021180000F019FE031E00D0C9E0EC
:10096000FB680133FB60FA68FA235B009A42EFDB15
:100970006F4B1B78002B05D16D4B01221A7000F0D4
:10098000F7F8B9E06A4B1B78012B00D0B4E00023E4
:10099000BB6002E0BB680133BB60BB68654A934241
:1009A000F8DD634B00221A7000F0A6F9A4E0624B58
:1009B0001B68002B00D0A1E0604B01221A8080232D
:1009C0005B005F4A1900100000F084F996E05A4B72
:1009D0001B68012B00D093E0584B01225A80584BE2
:1009E0008021180000F076F98AE0534B1B68022B37
:1009F00000D087E0514B01229A80514B40211800D2
:100A000000F068F97EE04C4B1B68032B00D07BE0C4
:100A10004A4B0122DA804A4B2021180000F05AF993
:100A200072E0454B1B68042B00D06FE0434B012262
:100A30001A81434B1021180000F04CF966E03E4B40
:100A40001B68052B64D13E4B0821180000F042F9C9
:100A50003A4B01225A815BE0374B1B68062B59D178
:100A6000364B01229A81374B0421180000F032F9ED
:100A700050E0314B1B68072B4ED1304B0122DA81FD
:100A800080235B01304A1900100000F023F943E095
:100A9000294B1B68082B41D1284B01221A82802345
:100AA0001B01294A1900100000F014F936E0224B0E
:100AB0001B68092B34D1214B01225A828023DB0091
:100AC000214A1900100000F005F929E01A4B1B68B3
:100AD0000A2B27D1194B01229A8280231A029023D4
:100AE000DB051100180000F0F5F81BE0174B0022A1
:100AF0001A7018E0C04616E0C04614E0C04612E086
:100B0000C04610E0C0460EE0C0460CE0C0460AE019
:100B1000C04608E0C04606E0C04604E0C04602E029
:100B2000C04600E0C046BD4604B080BD0014004889
:100B3000FC000020BF270900F4000020DC0000209A
:100B400000040048000C004800080048FD00002098
:100B500080B582B000AF786002E07B68013B7B60CB
:100B60007B68002BF9D1C046C046BD4602B080BDAF
:100B700080B584B000AF354B00221A700023FB60B3
:100B800026E0334B01221A70FB689BB2180000F07C
:100B90006BF8304BFA685200D35A0122190000F06A
:100BA00012FD2D4B1800FFF7D3FFFB689BB2180016
:100BB00000F05AF8274BFA685200D35A0022190065
:100BC00000F001FD254B00221A70FB680133FB6029
:100BD000FB680A2BD5DD0023BB600BE0204BBA6815
:100BE0005200D35A002B02D11E4B01221A70BB684F
:100BF0000133BB60BB680A2BF0DD1A4B1B78012B5D
:100C000005D100F0BDF8174B00221A7005E09023C3
:100C1000DB050221180000F05DF80C4B00221A7071
:100C2000104B00221A7000237B6007E00C4B7A689F
:100C300052000021D1527B6801337B607B680A2B14
:100C4000F4DDC046C046BD4604B080BDD8000020DB
:100C5000FE000020F8260008FFFFFF00FD00002036
:100C6000DC000020D900002080B582B000AF020077
:100C7000BB1D1A80BB1D1B880A2B1ED89A00124B65
:100C8000D3181B689F46114B19E09023DB0516E033
:100C90009023DB0513E09023DB0510E09023DB05B8
:100CA0000DE00A4B0BE00A4B09E0094B07E0084B4B
:100CB00005E0074B03E0064B01E09023DB0518003D
:100CC000BD4602B080BDC04610270008000800489D
:100CD0000004004880B582B000AF78600A00BB1CF9
:100CE0001A80BB1C19887B680022180000F06BFC7E
:100CF000C046BD4602B080BD80B500AF1B49902301
:100D0000DB050122180000F05EFC9023DB050022C9
:100D1000F421180000F057FC9023DB05012202218A
:100D2000180000F050FCE0235B011148012219007B
:100D300000F049FC0E4B00223021180000F043FC6B
:100D4000FC235B000B480122190000F03CFC0A491F
:100D5000084B0022180000F036FC084B0122042149
:100D6000180000F030FCC046BD4680BD0880000081
:100D70000008004800040048070C0000000C004870
:100D800080B500AF9023DB0500220821180000F099
:100D90001AFC9023DB0501220421180000F013FC4B
:100DA000064B1800FFF7D4FE9023DB050022042138
:100DB000180000F008FCC046BD4680BDFFFF0000E3
:100DC00080B500AFFEE7000080B582B000AF0F4BEA
:100DD0009A690E4B01210A439A610C4B9B690122CF
:100DE00013407B607B68094BDA69084B8021490519
:100DF0000A43DA61054BDA6980235B0513403B60E7
:100E00003B68C046BD4602B080BDC04600100240EF
:100E100080B582B000AF78607B681B68064A934259
:100E200006D1064B1A6A054B802109020A431A6251
:100E3000C046BD4602B080BD002800400010024000
:100E400080B584B000AF78607B681B68134A93421A
:100E50000CD1134BDA69124B10210A43DA61104BA3
:100E6000DB6910221340FB60FB6812E07B681B68A3
:100E70000C4A93420DD10A4BDA69094B8021490093
:100E80000A43DA61064BDA6980235B001340BB60DA
:100E9000BB68C046BD4604B080BDC04600100040DF
:100EA000001002400020004080B500AFFEE780B592
:100EB00000AFFEE780B500AFC046BD4680BD80B53F
:100EC00000AFC046BD4680BD80B500AF00F0D0F891
:100ED000C046BD4680BD80B500AFC046BD4680BDA2
:100EE00080B500AF012000F08BFB022000F088FBF2
:100EF000C046BD4680BD80B500AF042000F080FB39
:100F0000C046BD4680BD80B500AF102000F078FB24
:100F1000402000F075FB802000F072FB80235B0016
:100F2000180000F06DFB80239B00180000F068FBA8
:100F30008023DB00180000F063FB80231B011800F6
:100F400000F05EFB80235B01180000F059FB80235A
:100F50009B01180000F054FB8023DB01180000F017
:100F60004FFBC046BD4680BD80B500AF034B1800A7
:100F700001F0B5F9C046BD4680BDC046480000201E
:100F800080B500AFC046BD4680BD00000D48854617
:100F90000D480E490E4A002302E0D458C4500433D1
:100FA000C4188C42F9D30B4A0B4C002301E01360A8
:100FB0000432A242FBD3FFF7E3FF01F055FBFFF73A
:100FC0002FF9FEE700200020000000200C00002088
:100FD000542700080C00002004010020FEE7000058
:100FE00080B500AF074B1A68064B10210A431A6000
:100FF000032000F009F8FFF7E7FE00231800BD46C4
:1010000080BDC0460020024090B583B000AF78603C
:10101000144B1C68144B1B781900FA239800FFF737
:1010200073F8030019002000FFF76EF803001800A2
:1010300000F02FF9031E01D001230FE07B68032B82
:101040000BD8796801235B420022180000F0FCF8FD
:10105000064B7A681A60002300E001231800BD46A1
:1010600003B090BD00000020080000200400002014
:1010700080B500AF054B1B781A00054B1B68D218D2
:10108000034B1A60C046BD4680BDC0460800002024
:101090000001002080B500AF024B1B681800BD4660
:1010A00080BDC0460001002080B584B000AF7860EC
:1010B000FFF7F0FF0300BB607B68FB60FB68013358
:1010C00005D00A4B1B781A00FB689B18FB60C046D2
:1010D000FFF7E0FF0200BB68D31AFA689A42F7D81C
:1010E000C046C046BD4604B080BDC04608000020D2
:1010F00080B582B000AF0200FB1D1A70FB1D1B788B
:101100007F2B09D8FB1D1B781A001F231A40044BA4
:10111000012191400A001A60C046BD4602B080BD60
:1011200000E100E090B583B000AF02003960FB1D24
:101130001A70FB1D1B787F2B28D82F4AFB1D1B78AC
:101140005BB29B08C0339B009B58FA1D12781100BC
:1011500003220A40D200FF2191400A00D2431A40E4
:1011600011003B689B01FF221A40FB1D1B781800F1
:1011700003230340DB009A401F48FB1D1B785BB232
:101180009B080A43C0339B001A5031E01B4AFB1DE9
:101190001B7819000F230B40083B9B0806339B006C
:1011A000D31804331B68FA1D1278110003220A4079
:1011B000D200FF2191400A00D2431A4011003B683F
:1011C0009B01FF221A40FB1D1B78180003230340DC
:1011D000DB009A400948FB1D1B781C000F232340AD
:1011E000083B9B080A4306339B00C31804331A606C
:1011F000C046BD4603B090BD00E100E000ED00E058
:1012000080B582B000AF78607B685A1E80235B0493
:101210009A4201D3012310E00A4B7A68013A5A60DE
:1012200001235B4203211800FFF77CFF054B0022DE
:101230009A60044B07221A6000231800BD4602B0D2
:1012400080BDC04610E000E080B584B000AFB9605A
:101250007A600F217B18021C1A70BA687B181B7801
:101260005BB211001800FFF75DFFC046BD4604B039
:1012700080BD80B582B000AF0200FB1D1A70FB1D5F
:101280001B785BB21800FFF733FFC046BD4602B0C3
:1012900080BD80B582B000AF78607B681800FFF732
:1012A000AFFF03001800BD4602B080BD80B586B018
:1012B00000AF7860396000237B614FE13B681B68B9
:1012C00001217A6991400A001340FB60FB68002B02
:1012D00000D140E13B685B6803221340012B05D03D
:1012E0003B685B6803221340022B30D17B689B680C
:1012F0003B617B695B0003229A401300DA433B6940
:1013000013403B613B68DA687B695B009A401300DD
:101310003A6913433B617B683A699A607B685B6812
:101320003B6101227B699A401300DA433B69134019
:101330003B613B685B681B0901221A407B699A404C
:1013400013003A6913433B617B683A695A603B6812
:101350005B6803221340032B17D07B68DB683B617B
:101360007B695B0003229A401300DA433B69134018
:101370003B613B689A687B695B009A4013003A695D
:1013800013433B617B683A69DA603B685B68032220
:101390001340022B23D17B69DA087B680832920064
:1013A000D3583B617B69072213409B000F229A4070
:1013B0001300DA433B6913403B613B681A697B6960
:1013C00007210B409B009A4013003A6913433B618D
:1013D0007B69DA087B68083292003969D1507B68F2
:1013E0001B683B617B695B0003229A401300DA4370
:1013F0003B6913403B613B685B6803221A407B6991
:101400005B009A4013003A6913433B617B683A6979
:101410001A603B685A68C0239B02134000D19AE0CF
:10142000544B9A69534B01210A439A61514B9B6972
:1014300001221340BB60BB684F4A7B699B080233A3
:101440009B009B583B617B69032213409B000F224A
:101450009A401300DA433B6913403B617A6890235A
:10146000DB059A4213D07B68444A93420DD07B68D7
:10147000434A934207D07B68424A934201D10323F7
:1014800006E0052304E0022302E0012300E000233C
:101490007A6903210A40920093403A6913433B6101
:1014A00035497B699B0802339B003A695A50364B99
:1014B0001B683B61FB68DA433B6913403B613B6857
:1014C0005A6880235B02134003D03A69FB681343D8
:1014D0003B612D4B3A691A602B4B5B683B61FB68A3
:1014E000DA433B6913403B613B685A6880239B02A7
:1014F000134003D03A69FB6813433B61224B3A69BE
:101500005A60214B9B683B61FB68DA433B6913409F
:101510003B613B685A6880235B03134003D03A6900
:10152000FB6813433B61184B3A699A60164BDB68C2
:101530003B61FB68DA433B6913403B613B685A6897
:1015400080239B03134003D03A69FB6813433B613C
:101550000D4B3A69DA607B6901337B613B681A683D
:101560007B69DA40131E00D0A8E6C046C046BD46DF
:1015700006B080BD00100240000001400004004899
:1015800000080048000C00480004014080B584B009
:1015900000AF78600A00BB1C1A807B681B69BA1C0C
:1015A0001288134004D00F23FB1801221A7003E0A5
:1015B0000F23FB1800221A700F23FB181B7818004A
:1015C000BD4604B080BD80B582B000AF7860080031
:1015D0001100BB1C021C1A807B1C0A1C1A707B1C8D
:1015E0001B78002B04D0BB1C1A887B689A6103E02F
:1015F000BB1C1A887B689A62C046BD4602B080BD9B
:1016000080B582B000AF0200BB1D1A80094B5B6938
:10161000BA1D1288134008D0064BBA1D12885A61B1
:10162000BB1D1B881800FFF727F9C046BD4602B056
:1016300080BDC0460004014080B588B000AF78602E
:101640007B68002B01D1012301E37B681B68012229
:10165000134000D18DE0C34B5B680C221340042B78
:101660000ED0C04B5B680C221340082B16D1BD4B2B
:101670005A6880235B021A4080235B029A420DD194
:10168000B84B1A6880239B02134000D170E07B683E
:101690005B68002B00D06BE00123D8E27B685B68BD
:1016A000012B07D1AF4B1A68AE4B802149020A4388
:1016B0001A602FE07B685B68002B0CD1A94B1A687D
:1016C000A84BA9490A401A60A64B1A68A54BA7491E
:1016D0000A401A601EE07B685B68052B0ED1A14BA7
:1016E0001A68A04B8021C9020A431A609D4B1A68F0
:1016F0009C4B802149020A431A600BE0994B1A68FF
:10170000984B99490A401A60964B1A68954B97492D
:101710000A401A607B685B68002B14D0FFF7BAFCA4
:101720000300BB6108E0FFF7B5FC0200BB69D31AF8
:10173000642B01D903238AE28A4B1A6880239B0217
:101740001340F0D015E0FFF7A5FC0300BB6108E0F3
:10175000FFF7A0FC0200BB69D31A642B01D9032355
:1017600075E2804B1A6880239B021340F0D100E0A1
:10177000C0467B681B680222134000D169E0794BA8
:101780005B680C2213400BD0764B5B680C22134035
:10179000082B1CD1734B5A6880235B02134016D16F
:1017A000704B1B680222134005D07B68DB68012B5D
:1017B00001D001234BE26B4B1B68F82293431900C5
:1017C0007B681B69DA00674B0A431A6041E07B685B
:1017D000DB68002B24D0634B1A68624B01210A435B
:1017E0001A60FFF757FC0300BB6108E0FFF752FCEB
:1017F0000200BB69D31A022B01D9032327E2594BFC
:101800001B6802221340F1D0564B1B68F822934309
:1018100019007B681B69DA00524B0A431A6018E012
:10182000504B1A684F4B01218A431A60FFF732FC74
:101830000300BB6108E0FFF72DFC0200BB69D31A6F
:10184000022B01D9032302E2464B1B6802221340FC
:10185000F1D17B681B680822134036D07B68DB69B6
:10186000002B19D03F4B5A6A3E4B01210A435A6262
:10187000FFF710FC0300BB6108E0FFF70BFC020060
:10188000BB69D31A022B01D90323E0E1354B5B6A14
:1018900002221340F1D018E0324B5A6A314B012139
:1018A0008A435A62FFF7F6FB0300BB6108E0FFF7CB
:1018B000F1FB0200BB69D31A022B01D90323C6E155
:1018C000284B5B6A02221340F1D17B681B6804221B
:1018D000134000D1B4E01F203B1800221A70214BA6
:1018E000DA6980235B05134010D11E4BDA691D4B6A
:1018F000802149050A43DA611A4BDA6980235B05C6
:101900001340FB60FB683B1801221A70184B1A68E1
:1019100080235B0013401AD1154B1A68144B8021A9
:1019200049000A431A60FFF7B5FB0300BB6108E0FA
:10193000FFF7B0FB0200BB69D31A642B01D9032364
:1019400085E10B4B1A6880235B001340F0D07B6865
:101950009B68012B0ED1034B1A6A024B01210A43EB
:101960001A6235E000100240FFFFFEFFFFFFFBFFA1
:10197000007000407B689B68002B0CD1B64B1A6A44
:10198000B54B01218A431A62B34B1A6AB24B042148
:101990008A431A621CE07B689B68052B0CD1AE4B16
:1019A0001A6AAD4B04210A431A62AB4B1A6AAA4B5E
:1019B00001210A431A620BE0A74B1A6AA64B0121C8
:1019C0008A431A62A44B1A6AA34B04218A431A62FF
:1019D0007B689B68002B14D0FFF75CFB0300BB61A6
:1019E00009E0FFF757FB0200BB69D31A9B4A9342F9
:1019F00001D903232BE1984B1B6A02221340F0D03C
:101A000013E0FFF747FB0300BB6109E0FFF742FB70
:101A10000200BB69D31A914A934201D9032316E10C
:101A20008D4B1B6A02221340F0D11F23FB181B7839
:101A3000012B05D1884BDA69874B89490A40DA6165
:101A40007B681B681022134063D07B685B69012BA5
:101A50002AD1814B5A6B804B04210A435A637E4B37
:101A60005A6B7D4B01210A435A63FFF713FB0300B6
:101A7000BB6108E0FFF70EFB0200BB69D31A022B23
:101A800001D90323E3E0744B5B6B02221340F1D0D6
:101A9000714B5B6BF822934319007B689B69DA00FA
:101AA0006D4B0A435A6334E07B685B69053311D19F
:101AB000694B5A6B684B04218A435A63664B5B6BD4
:101AC000F822934319007B689B69DA00624B0A4352
:101AD0005A631EE0604B5A6B5F4B04210A435A6302
:101AE0005D4B5A6B5C4B01218A435A63FFF7D2FA74
:101AF0000300BB6108E0FFF7CDFA0200BB69D31A0F
:101B0000022B01D90323A2E0534B5B6B022213404B
:101B1000F1D17B681B6A002B00D197E04E4B5B68CC
:101B20000C221340082B00D16BE07B681B6A022B50
:101B30004CD1494B1A68484B4A490A401A60FFF792
:101B4000A9FA0300BB6108E0FFF7A4FA0200BB6931
:101B5000D31A022B01D9032379E03F4B1A68802363
:101B60009B041340F0D13C4BDB6A0F2293431900D6
:101B70007B68DA6A384B0A43DA62374B5B683A4A69
:101B8000134019007B689A6A7B685B6A1A43324B80
:101B90000A435A60304B1A682F4B802149040A438C
:101BA0001A60FFF777FA0300BB6108E0FFF772FAEB
:101BB0000200BB69D31A022B01D9032347E0264B4D
:101BC0001A6880239B041340F0D03FE0224B1A6830
:101BD000214B24490A401A60FFF75CFA0300BB61FD
:101BE00008E0FFF757FA0200BB69D31A022B01D9AC
:101BF00003232CE0184B1A6880239B041340F0D178
:101C000024E07B681B6A012B01D101231FE0124BEA
:101C10005B687B61104BDB6A3B617A6980235B0206
:101C20001A407B685B6A9A420ED13B690F221A40C8
:101C30007B68DB6A9A4207D17A69F0239B031A40DA
:101C40007B689B6A9A4201D0012300E000231800C0
:101C5000BD4608B080BDC046001002408813000099
:101C6000FFFFFFEFFFFFFFFEFFFFC2FF80B584B065
:101C700000AF786039607B68002B01D10123B3E0AD
:101C80005B4B1B68012213403A689A4211D9584BAA
:101C90001B68012293431900554B3A680A431A60A6
:101CA000534B1B68012213403A689A4201D001232A
:101CB0009AE07B681B680222134015D07B681B6882
:101CC0000422134006D04B4B5A684A4BE021C9000E
:101CD0000A435A60474B5B68F022934319007B68C4
:101CE0009A68444B0A435A607B681B680122134080
:101CF00040D07B685B68012B07D13E4B1A6880237C
:101D00009B02134014D101236EE07B685B68022BB9
:101D100007D1384B1A6880239B04134008D1012354
:101D200062E0344B1B680222134001D101235BE0C7
:101D3000304B5B680322934319007B685A682D4B34
:101D40000A435A60FFF7A6F90300FB6009E0FFF7BA
:101D5000A1F90200FB68D31A274A934201D9032351
:101D600042E0244B5B680C221A407B685B689B0056
:101D70009A42ECD11E4B1B68012213403A689A42EA
:101D800011D21B4B1B68012293431900184B3A6870
:101D90000A431A60164B1B68012213403A689A42A4
:101DA00001D0012320E07B681B680422134009D086
:101DB000104B5B68114A134019007B68DA680D4BC1
:101DC0000A435A6000F020F801000A4B5B681B09C7
:101DD0000F2213400A4AD35C0A00DA40094B1A600A
:101DE0000320FFF711F900231800BD4604B080BDA1
:101DF000002002400010024088130000FFF8FFFF9F
:101E00003C2700080000002090B58FB000AF1423DD
:101E1000FB182B4A13CA13C312681A603B1D294AC8
:101E200013CA13C312681A600023FB620023BB624B
:101E300000237B6300237B6200233B63224B5B68B0
:101E4000FB62FB6A0C221340042B02D0082B03D048
:101E50002DE01E4B3B632DE0FB6A9B0C0F221340D1
:101E60001422BA18D35C7B62174BDB6A0F22134033
:101E70003A1DD35CBB62FA6A80235B02134009D02F
:101E8000B96A1248FEF740F903001A007B6A53430F
:101E90007B6309E0796A0A005201521A93019B1A86
:101EA000DB005B181B027B637B6B3B6302E0074B31
:101EB0003B63C0463B6B1800BD460FB090BDC046AB
:101EC000D8260008E82600080010024000127A0018
:101ED00080B586B000AF786000233B610023FB60D3
:101EE0007B681A6880235B02134000D18EE01720C4
:101EF0003B1800221A70574BDA6980235B051340A8
:101F000010D1544BDA69534B802149050A43DA61F9
:101F1000504BDA6980235B051340BB60BB683B18FC
:101F200001221A704C4B1A6880235B0013401AD1AF
:101F3000494B1A68484B802149000A431A60FFF751
:101F4000A9F803003B6108E0FFF7A4F802003B6931
:101F5000D31A642B01D9032377E03F4B1A688023FF
:101F60005B001340F0D03B4B1A6AC0239B00134028
:101F7000FB60FB68002B34D07B685A68C0239B0051
:101F80001340FA689A422CD0324B1B6A334A1340F2
:101F9000FB60304B1A6A2F4B802149020A431A62B8
:101FA0002C4B1A6A2B4B2E490A401A62294BFA68AD
:101FB0001A62FB680122134013D0FFF76BF803008D
:101FC0003B6109E0FFF766F802003B69D31A254A36
:101FD000934201D9032338E01E4B1B6A02221340AF
:101FE000F0D01C4B1B6A1D4A134019007B685A68CD
:101FF000184B0A431A621723FB181B78012B05D1D3
:10200000144BDA69134B18490A40DA617B681B6884
:102010000122134009D00F4B1B6B0322934319007D
:102020007B689A680B4B0A431A637B681B68202203
:10203000134009D0074B1B6B1022934319007B6898
:10204000DA68044B0A431A6300231800BD4606B041
:1020500080BDC0460010024000700040FFFCFFFF42
:10206000FFFFFEFF88130000FFFFFFEF80B582B087
:1020700000AF78607B68002B01D1012381E07B6891
:102080005B7FDBB2002B06D17B6800221A777B686E
:102090001800FEF7BDFE7B6802225A777B681B683A
:1020A000CA225A627B681B6853225A627B681800F6
:1020B00000F099F8031E08D07B681B68FF225A6263
:1020C0007B6804225A7701235BE07B681B689A686F
:1020D0007B681B682D490A409A607B681B68996879
:1020E0007B685A687B681B691A437B685B691A4383
:1020F0007B681B680A439A607B681B687A68D268B1
:102100001A617B681B6819697B689B681A047B6885
:102110001B680A431A617B681B68DA687B681B6866
:1021200080218A43DA607B681B689B682022134009
:102130000ED17B68180000F02DF8031E08D07B68D4
:102140001B68FF225A627B6804225A77012318E039
:102150007B681B681A6C7B681B680D490A401A640F
:102160007B681B68196C7B689A697B681B680A43EB
:102170001A647B681B68FF225A627B6801225A77C7
:1021800000231800BD4602B080BDC046BFFF8FFFD0
:10219000FFFFFBFF80B584B000AF78600023FB60D9
:1021A0007B681B68DA687B681B68A0218A43DA6059
:1021B000FEF770FF0300FB600AE0FEF76BFF020012
:1021C000FB68D21AFA239B009A4201D9032306E046
:1021D0007B681B68DB6820221340EED000231800C8
:1021E000BD4604B080BD80B584B000AF78600023E8
:1021F000FB607B681B68DB68402213401AD17B6858
:102200001B6801225242DA60FEF744FF0300FB60C4
:102210000AE0FEF73FFF0200FB68D21AFA239B0098
:102220009A4201D9032306E07B681B68DB684022E1
:102230001340EED000231800BD4604B080BD80B529
:1022400082B000AF78607B68002B01D1012342E0AF
:102250007B683D229B5CDBB2002B07D17B683C2274
:10226000002199547B681800FEF7EAFD7B683D2247
:10227000022199547B681A687B68043319001000A6
:1022800000F06CF97B684622012199547B683E225C
:10229000012199547B683F22012199547B68402297
:1022A000012199547B684122012199547B68422283
:1022B000012199547B684322012199547B6844226F
:1022C000012199547B684522012199547B683D2264
:1022D0000121995400231800BD4602B080BD80B58D
:1022E00082B000AF78607B681B681B6902221340D4
:1022F000022B24D17B681B68DB6802221340022B6F
:102300001DD17B681B68032252421A617B6801223F
:102310001A777B681B689B690322134004D07B6893
:10232000180000F002F907E07B68180000F0F5F8EB
:102330007B68180000F001F97B6800221A777B683F
:102340001B681B6904221340042B25D17B681B6882
:10235000DB6804221340042B1ED17B681B68052216
:1023600052421A617B6802221A777B681B689A695D
:10237000C0239B00134004D07B68180000F0D5F800
:1023800007E07B68180000F0C8F87B68180000F0D0
:10239000D4F87B6800221A777B681B681B690822C7
:1023A0001340082B24D17B681B68DB68082213408C
:1023B000082B1DD17B681B68092252421A617B6879
:1023C00004221A777B681B68DB690322134004D060
:1023D0007B68180000F0A9F807E07B68180000F09F
:1023E0009CF87B68180000F0A8F87B6800221A7738
:1023F0007B681B681B6910221340102B25D17B685A
:102400001B68DB6810221340102B1ED17B681B68F1
:10241000112252421A617B6808221A777B681B6876
:10242000DA69C0239B00134004D07B68180000F0D9
:102430007CF807E07B68180000F06FF87B681800F4
:1024400000F07BF87B6800221A777B681B681B69A9
:1024500001221340012B0FD17B681B68DB6801222E
:102460001340012B08D17B681B68022252421A617B
:102470007B68180000F049F87B681B681B698022A4
:102480001340802B0FD17B681B68DB6880221340D0
:10249000802B08D17B681B68812252421A617B68BD
:1024A000180000F0D9F87B681B681B6940221340B4
:1024B000402B0FD17B681B68DB6840221340402B08
:1024C00008D17B681B68412252421A617B68180060
:1024D00000F03BF87B681B681B6920221340202B0F
:1024E0000FD17B681B68DB6820221340202B08D1AA
:1024F0007B681B68212252421A617B68180000F039
:10250000A3F8C046BD4602B080BD80B582B000AF22
:102510007860C046BD4602B080BD80B582B000AFD5
:102520007860C046BD4602B080BD80B582B000AFC5
:102530007860C046BD4602B080BD80B582B000AFB5
:102540007860C046BD4602B080BD80B582B000AFA5
:102550007860C046BD4602B080BD000080B584B042
:1025600000AF786039607B681B68FB607B682F4A2E
:10257000934203D07B682E4A934208D1FB687022B5
:102580009343FB603B685B68FA681343FB607B68BE
:10259000264A934213D07B68254A93420FD07B682A
:1025A000244A93420BD07B68234A934207D07B682E
:1025B000224A934203D07B68214A934208D1FB68A8
:1025C000204A1340FB603B68DB68FA681343FB60FA
:1025D000FB68802293431A003B685B691343FB60EE
:1025E0007B68FA681A603B689A687B68DA623B68C5
:1025F0001A687B689A627B680C4A93420BD07B68AE
:102600000D4A934207D07B680C4A934203D07B6803
:102610000B4A934203D13B681A697B681A637B6853
:1026200001225A61C046BD4604B080BD002C014065
:1026300000040040002000400040014000440140F0
:1026400000480140FFFCFFFF80B582B000AF78601A
:10265000C046BD4602B080BD80B582B000AF786094
:10266000C046BD4602B080BD70B500260C4D0D4C75
:10267000641BA410A64209D1002600F021F80A4DDF
:102680000A4C641BA410A64205D170BDB300EB58E0
:1026900098470136EEE7B300EB5898470136F2E76A
:1026A0004C2700084C2700084C270008502700083A
:1026B00003008218934200D1704719700133F9E783
:1026C000F8B5C046F8BC08BC9E467047F8B5C04691
:0826D000F8BC08BC9E467047EF
:1026D80002030405060708090A0B0C0D0E0F10105B
:1026E8000102030405060708090A0B0C0D0E0F105A
:1026F80010008000400020001000200001000200AF
:102708000400000400080000860C00088A0C000879
:10271800900C0008960C00089C0C0008A20C0008FD
:10272800A60C0008AA0C0008AE0C0008B20C0008A1
:10273800B60C0008000000000000000001020304BD
:04274800060708096F
:04274C00E900000898
:04275000C1000008BC
:0C27540000127A000400000001000000E8
:0400000508000F8D53
:00000001FF
