:020000040800F2
:100000000020002021080008990700089B0700082D
:1000100000000000000000000000000000000000E0
:100020000000000000000000000000009D07000824
:1000300000000000000000009F070008A107000862
:10004000710800080000000071080008710800082D
:10005000A9070008AB070008BB070008C507000890
:10006000000000007108000871080008710800080D
:1000700071080008710800087108000800000000FD
:10008000710800080D080008000000007108000851
:10009000710800087108000871080008710800085C
:1000A000710800087108000871080008710800084C
:1000B00071080008000000000000000000000000BF
:1000C00010B5064C2378002B07D1054B002B02D02E
:1000D000044800E000BF0123237010BD0C00002085
:1000E000000000006C150008044B10B5002B03D075
:1000F0000349044800E000BF10BDC04600000000F6
:10010000100000206C150008002243088B4274D3B5
:1001100003098B425FD3030A8B4244D3030B8B4208
:1001200028D3030C8B420DD3FF22090212BA030C11
:100130008B4202D31212090265D0030B8B4219D3F2
:1001400000E0090AC30B8B4201D3CB03C01A524112
:10015000830B8B4201D38B03C01A5241430B8B425A
:1001600001D34B03C01A5241030B8B4201D30B0343
:10017000C01A5241C30A8B4201D3CB02C01A52416A
:10018000830A8B4201D38B02C01A5241430A8B422D
:1001900001D34B02C01A5241030A8B4201D30B0216
:1001A000C01A5241CDD2C3098B4201D3CB01C01A30
:1001B000524183098B4201D38B01C01A524143093A
:1001C0008B4201D34B01C01A524103098B4201D328
:1001D0000B01C01A5241C3088B4201D3CB00C01A95
:1001E000524183088B4201D38B00C01A524143080D
:1001F0008B4201D34B00C01A5241411A00D2014632
:10020000524110467047FFE701B5002000F006F8A4
:1002100002BDC0460029F7D076E770477047C04658
:1002200070B594B0282200210AA801F096F9102296
:100230000021684601F091F91022002104A801F084
:100240008CF90923802508938023012402266D025E
:100250005B0308A809940F9410961195129300F06F
:100260006DFC002800D0FEE70723029003902100D8
:1002700068460093019600F093FE002800D0FEE748
:10028000802304A89B000495059300F00DFF00282F
:1002900000D0FEE714B070BDF0B58BB000F00EFBDF
:1002A000FFF7BEFF1422002105A801F056F98020B7
:1002B000984B000359690226014359615A69012488
:1002C000024080200092009A5969C003014359619D
:1002D0005A690025024080200192019A59698002E2
:1002E000014359615A690427024080200292029A10
:1002F0005969C0020143596180215A69490302408A
:1003000090200392039A5A69C0050A435A615B69B7
:1003100000220B4004938049049B00F0FDFB002267
:100320007E497F4800F0F8FB00227E497E4800F0BD
:10033000F3FB802101227A48490000F0EDFB002206
:1003400004217A4800F0E8FB0723059388237448CA
:100350005B0305A90693079600F022FB9020032279
:100360000A2305A9C005089205930694079400F096
:1003700017FB902005A9C0050597069407950895D9
:1003800000F00EFB10230593842369489B0305A905
:100390000693079400F004FB9020F02305A9C00504
:1003A000059307960694089500F0FAFA30235C4806
:1003B00005A9059307960694089500F0F1FA5D4BA0
:1003C000594805A9059307960694089500F0E8FAA0
:1003D000E023DB010593882353485B0305A90693BB
:1003E000079600F0DDFAE82303225B014C4805A9DB
:1003F000089205930694079400F0D2FAE0231B01BB
:1004000005939020882305A95B03C00506930796F2
:1004100000F0C6FAC0230593882345485B0305A96D
:100420000693079600F0BCFA802390201B0205A9D2
:10043000C0050593361906940794089500F0B0FAA4
:100440003A4805A9059706940794089600F0A8FA7B
:10045000FC2335485B0005A905930694079408968C
:1004600000F09EFA3448354B456003607F2383607B
:100470008033C36005614561856100F0D1FE0300F2
:10048000A84200D0FEE72E482E4A83600260682210
:10049000FF3242602C4A8361C26001F007F8031EFC
:1004A00000D0FEE729482A4A43600260294A836057
:1004B000C2600361836100F0F9FF041E00D0FEE713
:1004C00002000100052000F01BFA052000F042FAAE
:1004D00022002100062000F013FA062000F03AFA6C
:1004E00022002100072000F00BFA072000F032FA6A
:1004F00022002100112000F003FA112000F02AFA56
:1005000038002200210000F0FBF9380000F022FA48
:10051000FEE7C04600100240FE800000301C0000D4
:1005200000080048FF0D000000040048000C0048CF
:1005300000140048070C0000440000200028004080
:10054000AC000020001000401027000064000020D4
:1005500000200040FFFF00000A2803D8034B800062
:10056000C05870479020C005FBE7C04684150008BE
:1005700010B5002200F0D0FA10BD000010B5902494
:10058000E40520000122154900F0C6FA20000022EF
:10059000F42100F0C1FA20000122022100F0BCFA8F
:1005A000E0210F4C01222000490100F0B5FA2000A3
:1005B0000022302100F0B0FA0122FC21094C9140C8
:1005C000200000F0A9FA20000022074900F0A4FA58
:1005D00001220421054800F09FFA10BD08800000A8
:1005E0000008004800040048070C0000000C004808
:1005F00010B59024E40520000022082100F08CFAB8
:1006000020000122042100F087FA002204212000AA
:1006100000F082FA10BD0000F8B500241C4D2C70CB
:10062000A0B2FFF799FF06001A4B6200D75A0122C9
:10063000390000F071FA013400223900300000F076
:100640006BFA0B2CECD1002201201300124C134E3C
:1006500021785F00BF5B002F01D102000100013350
:100660000B2BF6D1002A00D021702378012B09D161
:10067000FFF7BEFF0021300016222970217000F024
:100680006CFFF8BD90200221C005FFF771FFF1E774
:1006900040000020B0150008280000202A0000209B
:1006A00010B510280AD080281BD101228021104BC0
:1006B00010481A804900FFF75BFF12E0FA2464003B
:1006C00010210D4800F022FA00280AD1013C002C2C
:1006D000F6D10A4B1A78002A04D101321A70FFF7BA
:1006E0009BFF10BD012AFCD11C70FFF747FFF8E704
:1006F0002A000020000400480014004841000020A7
:1007000001200A4B82B099690143996180219A695D
:10071000490502400092009ADA690A43DA61DB690E
:100720000B400193019B02B07047C046001002408D
:10073000054B02689A4205D18023044A1B02116AC4
:100740000B4313627047C04600280040001002406F
:1007500003680E4A82B093420AD110200C4AD16934
:100760000143D161D36903400093009B02B07047FD
:10077000084A9342FAD18020054A4000D1690143DA
:10078000D161D36903400193019BEFE70010004062
:100790000010024000200040FEE7FEE7704770476F
:1007A00010B500F09BF810BD704710B5012000F0A7
:1007B000B9F9022000F0B6F910BD10B5042000F020
:1007C000B1F910BD10B5102000F0ACF9402000F0D8
:1007D000A9F9802000F0A6F98020800000F0A2F99D
:1007E0008020C00000F09EF98020000100F09AF9FE
:1007F0008020400100F096F98020800100F092F9FD
:100800008020C00100F08EF910BD000010B5024834
:1008100000F05FFD10BDC046AC0000207047000036
:100820000D4885460D480E490E4A002302E0D45873
:10083000C4500433C4188C42F9D30B4A0B4C002328
:1008400001E013600432A242FBD3FFF7E7FF00F0A0
:1008500057FEFFF721FDFEE70020002000000020EA
:100860000C000020001600080C000020F8000020FA
:10087000FEE7000070B50500FA200D4B80001978E6
:10088000FFF742FC0B4B01001868FFF73DFC00F03E
:100890006DF804000120002C09D1032D07D802387F
:1008A0002200290000F02CF82000034B1D6070BDD1
:1008B0000400002000000020080000201023064A49
:1008C00010B5116803200B431360FFF7D3FFFFF748
:1008D00017FF002010BDC04600200240034A044B11
:1008E00011681B785B1813607047C046F400002045
:1008F00004000020014B18687047C046F400002037
:1009000030B5FF2503242A000440E400A2408901F9
:100910002940D243A140C3B200280ADBC0240B4BBC
:1009200080088000C018A40003591A4011430151E7
:1009300030BD0F200340083B05489B089B001B1857
:10094000D86902401143D961F2E7C04600E100E0F6
:1009500000ED00E0002805DB1F2318401E3B83400C
:10096000014A13607047C04600E100E08022431E48
:100970005204012093420DD2C021074A0748536018
:10098000036A09061B021B0A0B43036200200723AC
:10099000906013607047C04610E000E000ED00E09A
:1009A0000023F0B587B00A681400DC4001D107B01D
:1009B000F0BD012514009D402C4001942A4200D135
:1009C00095E04A685E009446032264462240032470
:1009D000B440E4430294541E012C2AD88768029C38
:1009E0002740CC68B4403C43846044680127AC4352
:1009F0002500644624093C409C402C434460C56863
:100A0000029C25408C68B4402C43C460022A12D159
:100A1000DC080725A4000419276A03940F241D404D
:100A2000AD00AC40A7430C69AC402743039C276250
:100A300001E0032AE3D10468029DB24025402C0066
:100A400014430460C0246246A40222424FD0012510
:100A5000284A90279469FF052C43946192699C0869
:100A60002A400592059A244AA400A4180F220235B0
:100A70001D40AD00AA40A66896430022B8420CD0A3
:100A80001E4F0132B84208D01D4F0132B84204D087
:100A90001C4F0132B84200D00232AA4067463243AE
:100AA000A260194A019C1668019DE4433543FF0387
:100AB00001D435002540674615605668019D3543D1
:100AC000BF0301D435002540674655609668019DF7
:100AD0003543FF0201D43500254067469560D5684F
:100AE000019E2E43BF0201D425402E00D660013363
:100AF00059E7C046001002400000014000040048D1
:100B000000080048000C004800040140006908404B
:100B1000431E9841C0B27047002A01D081617047DE
:100B20008162FCE7044B10B55A69104202D058614B
:100B3000FFF7B6FD10BDC04600040140F0B504004B
:100B400085B0002845D00368DB072FD423689B07B6
:100B500000D581E023681B0700D5BCE023685B0754
:100B600000D5DFE02368DB061AD562690423B54DA2
:100B7000012A00D04AE1696B02270B436B636B6B60
:100B80001A436A63FFF7B6FE06006B6B3B4200D167
:100B900035E1F8216A6BA3698A43DB0013436B6379
:100BA000236A002B00D059E100202AE00C21A54D3A
:100BB0006A680A40042A06D06B680B40082B0AD1E9
:100BC0006B68DB0307D52B689B03BFD56368002BDD
:100BD000BCD1012015E06368012B14D180232A6861
:100BE0005B0213432B60FFF785FE80270600BF02E0
:100BF0002B683B42AAD1FFF77DFE801B6428F7D902
:100C0000032005B0F0BD002B16D12B688E4A80273B
:100C100013402B602B688D4ABF0213402B60FFF7F7
:100C200069FE06002B683B4200D18FE7FFF762FEAA
:100C3000801B6428F6D9E3E7052B05D180232A68B9
:100C4000DB0213432B60C9E72B687F4A13402B60FC
:100C50002B687E4A1340C5E70C227A4D6B6813421D
:100C600006D06B681340082B10D16B68DB030DD4E2
:100C70002B689B0702D5E368012BAAD1F8212A68CB
:100C800023698A43DB0013432B6063E7E268012397
:100C9000002A0FD02A68022713432B60FFF72AFE91
:100CA00006002B683B42E9D1FFF724FE801B022897
:100CB000F7D9A5E72A6802279A432A60FFF71AFEA8
:100CC00006002B683B4200D144E7FFF713FE801B70
:100CD0000228F6D994E7E26901235A4D002A10D080
:100CE0006A6A022713436B62FFF704FE06006B6A11
:100CF0003B4200D032E7FFF7FDFD801B0228F6D90A
:100D00007EE76A6A02279A436A62FFF7F3FD0600EC
:100D10006B6A3B4200D121E7FFF7ECFD801B022804
:100D2000F6D96DE780220021464D5205EB6900910E
:100D3000134208D1EB691343EB61EB691340039352
:100D4000039B012300938027414E7F0033683B4281
:100D500006D0A368012B13D12A6A13432B6230E01B
:100D600033683B433360FFF7C5FD019033683B4276
:100D7000EFD1FFF7BFFD019BC01A6428F6D93FE70A
:100D80000122002B14D12B6A022793432B622B6A7A
:100D9000033293432B62FFF7ADFD06002B6A3B4203
:100DA00016D0FFF7A7FD2B4B801B9842F6D927E7FB
:100DB000052B16D1296A013B0B432B622B6A1A4380
:100DC0002A62FFF797FD022706002B6A3B420FD0ED
:100DD000009B012B00D0C5E6EB691F4A1340EB6175
:100DE000C0E62B6A934304222B622B6A9343B5E738
:100DF000FFF780FD174B801B9842E6D900E7FFF70D
:100E000079FD801B022800D8BFE6F9E6053203D140
:100E10006A6B9A436A63BCE66A6B0227134301223A
:100E20006B636B6B93436B63FFF764FD06006B6B47
:100E30003B4200D1B4E6FFF75DFD801B0228F6D9E6
:100E4000DEE6C04600100240FFFFFEFFFFFFFBFF93
:100E50000070004088130000FFFFFFEF0C21344DAD
:100E60006A680A40082A47D0324A022B32D12B68DE
:100E7000802713402B60FFF73DFD0600BF042B6861
:100E80003B4221D10F22EB6A80269343E26AB604EB
:100E90001343EB62616AA36A6A680B4326490A40FE
:100EA00013436B6080232A685B0413432B60FFF7B6
:100EB00021FD04002B68334200D075E6FFF71AFDD0
:100EC000001B0228F6D99BE6FFF714FD801B0228C1
:100ED000D5D995E62B68802613402B60FFF70AFDD5
:100EE0000400B6042B68334200D15DE6FFF702FD33
:100EF000001B0228F6D983E61800012B00D180E6FA
:100F000080216B68606A4902EA6A1940814200D018
:100F10005FE60F210A40E16A8A4200D059E6F022DA
:100F200092031340A26A934200D13DE651E6C046C7
:100F300000100240FFFFFFFEFFFFC2FF70B588B048
:100F400010221249684604AD00F0FEFA1022280073
:100F50000F4900F0F9FA0C220E4E73681A40082A65
:100F600011D10F206A46990C0140545CF26A02408C
:100F7000A95CDB0305D50848FFF7C6F8604308B055
:100F800070BD0648FAE70448F9E7C046D6150008E0
:100F9000E71500080010024000127A0000093D0029
:100FA000F7B504000E00002801D10120FEBD01228A
:100FB000374D2B6813408B421CD321688B0722D4FA
:100FC000CB072FD401232A681A40B24251D8236894
:100FD000304D5B0754D4FFF7B1FF6B682E4A1B06F8
:100FE0001B0FD35CD8402D4B18600320FFF742FC49
:100FF0000020DBE72B6893430B432B602B681340E7
:101000008B42D2D1D9E7234A4B0704D5E02350685D
:10101000DB0003435360F02053688343A06803431D
:101020005360CDE71B4F62683B68012A19D19B03CF
:10103000BBD503217B688B4313437B60FFF75AFCCE
:1010400001900C237A681A4063689B009A42B9D0D9
:10105000FFF750FC019BC01A114B9842F1D90320B5
:10106000A4E7022A02D19B01E3D49EE79B07E0D4C8
:101070009BE72A689A432A602A681A42A7D094E715
:101080006B68084A1340E26813436B60A3E7C046ED
:101090000020024000100240C61500080000002099
:1010A00088130000FFF8FFFFF0B50368050085B066
:1010B000DB032AD580220021384C5205E3690091D8
:1010C000134208D1E3691343E361E36913400393D7
:1010D000039B012300938027314E7F0033683B42FE
:1010E00028D0226AC02311009B002E4E19401A42BC
:1010F00032D1236A1E406B681E43009B2662012B7F
:1011000003D1E369284A1340E3612A68D30706D56F
:10111000032022490B6B8343A86803430B63002021
:10112000930617D510211D4A136B8B43E9680B43B7
:1011300013630FE033683B433360FFF7DBFB019041
:1011400033683B42CDD1FFF7D5FB019BC01A642821
:10115000F6D9032005B0F0BD6A6813408B42C8D0B1
:101160008023226A206A11005B0203432362236A00
:101170000E483140034023622162D307B9D5FFF7FF
:10118000B9FB07000222236A1342B2D1FFF7B2FB78
:10119000074BC01B9842F5D9DBE7C0460010024060
:1011A00000700040FFFCFFFFFFFFFFEFFFFFFEFFAF
:1011B00088130000A0210268F8B5D36804008B43AF
:1011C000D360FFF797FBFA2705002026BF002368AE
:1011D000DB68334201D00020F8BDFFF78BFB401BDA
:1011E000B842F4D90320F7E7F8B5402603680400B5
:1011F000DA68324201D00020F8BD01225242DA60A2
:10120000FFF778FBFA270500BF002368DB6833424D
:10121000F1D1FFF76FFB401BB842F6D90320EBE793
:1012200070B504000125002818D0437FDAB2002BE6
:1012300002D10277FFF77CFA0223CA226377236880
:1012400020005A62773A5A62FFF7CEFF2368051EE4
:1012500006D0FF225A62042301256377280070BD5F
:101260009A68174920690A409A606268996802433F
:10127000606902430A439A60E2681A61A2681969C8
:1012800012040A4380211A61DA688A43DA609B6893
:101290009B0606D42000FFF78DFF002801D02368AD
:1012A000D7E7236807491A6C0A401A641A6CA169C7
:1012B0000A431A64FF225A6201236377CEE7C046CD
:1012C000BFFF8FFFFFFFFBFF7047704770477047FE
:1012D00070470222036810B51969040011420ED04C
:1012E000D96811420BD0053A1A61043202779B6922
:1012F0009B0700D179E0FFF7E9FF00232377042261
:1013000023681969114210D0D96811420DD0093AE9
:101310001A61073222779A69C0239B0020001A4283
:1013200069D0FFF7D3FF00232377082223681969C8
:1013300011420ED0D96811420BD0113A1A610D3208
:101340002277DB6920009B075BD0FFF7BFFF0023FC
:101350002377102223681969114210D0D9681142ED
:101360000DD0213A1A6119322277DA69C0239B0025
:1013700020001A424BD0FFF7A9FF00232377012258
:1013800023681969114207D0D968114204D0033A81
:1013900020001A61FFF798FF802223681969114223
:1013A00008D0D968114205D0023AFF3A20001A61EC
:1013B00000F0A5F8402223681969114207D0D968C6
:1013C000114204D0813A20001A61FFF781FF2022E8
:1013D00023681969114207D0D968114204D0413AF3
:1013E00020001A6100F08AF810BDFFF76EFF2000A0
:1013F000FFF76DFF81E7FFF768FF2000FFF767FF4A
:1014000091E7FFF762FF2000FFF761FF9FE7FFF71B
:101410005CFF2000FFF75BFFAFE700001C4A10B540
:101420000368904202D01B4CA04208D17024A34311
:101430004C68234390420ED0164CA0420BD0164C61
:10144000A04208D0154CA04205D0154CA04202D0B5
:10145000144CA04203D1144C2340CC682343802475
:10146000A3434C69234303608B68C3620B688362A8
:10147000904208D0094B984205D0094B984202D0BF
:10148000084B984201D10B6903630123436110BDEE
:10149000002C0140000400400020004000400140BA
:1014A0000044014000480140FFFCFFFF70B504000C
:1014B0000120002C21D025003D352B78DAB2002BFD
:1014C00005D123003C3320001A70FFF741F90223B5
:1014D0002B702068211DFFF7A1FF220001230020AF
:1014E000463213704534083A137053709370D370BA
:1014F00013715371937123702B7070BD70477047D7
:1015000070B500260C4D0D4C641BA410A64209D1E9
:10151000002600F02BF80A4D0A4C641BA410A642CA
:1015200005D170BDB300EB5898470136EEE7B30024
:10153000EB5898470136F2E7F8150008F81500084F
:10154000F8150008FC150008002310B59A4200D1D8
:1015500010BDCC5CC4540133F8E7030082189342F9
:1015600000D1704719700133F9E70000F8B5C046A3
:10157000F8BC08BC9E467047F8B5C046F8BC08BC2D
:041580009E467047CC
:10158400000800480000004800000048000000482F
:101594000000004800080048000400480004004817
:1015A40000040048000400480004004810008000C3
:1015B400400020001000200001000200040000048C
:1015C40000080000000000000000010203040607F8
:1015D400080902030405060708090A0B0C0D0E0F7F
:1015E4001010000102030405060708090A0B0C0D7C
:0415F4000E0F1000C6
:0415F800E9000008FE
:0415FC00C100000822
:0C16000000127A0001000000040000004D
:0400000508000821C6
:00000001FF
