:020000040800F2
:100000000020002039070008C5060008C7060008C0
:1000100000000000000000000000000000000000E0
:10002000000000000000000000000000C9060008F9
:100030000000000000000000CB060008CD0600080C
:1000400089070008000000008907000889070008E8
:10005000D5060008D7060008E7060008F1060008E4
:1000600000000000890700088907000889070008C8
:1000700089070008890700088907000800000000B8
:1000800089070008890700080000000089070008A8
:100090008907000889070008890700088907000800
:1000A00089070008890700088907000889070008F0
:1000B00089070008000000000000000000000000A8
:1000C00010B5064C2378002B07D1054B002B02D02E
:1000D000044800E000BF0123237010BD0C00002085
:1000E0000000000020100008044B10B5002B03D0C6
:1000F0000349044800E000BF10BDC04600000000F6
:100100001000002020100008002243088B4274D306
:1001100003098B425FD3030A8B4244D3030B8B4208
:1001200028D3030C8B420DD3FF22090212BA030C11
:100130008B4202D31212090265D0030B8B4219D3F2
:1001400000E0090AC30B8B4201D3CB03C01A524112
:10015000830B8B4201D38B03C01A5241430B8B425A
:1001600001D34B03C01A5241030B8B4201D30B0343
:10017000C01A5241C30A8B4201D3CB02C01A52416A
:10018000830A8B4201D38B02C01A5241430A8B422D
:1001900001D34B02C01A5241030A8B4201D30B0216
:1001A000C01A5241CDD2C3098B4201D3CB01C01A30
:1001B000524183098B4201D38B01C01A524143093A
:1001C0008B4201D34B01C01A524103098B4201D328
:1001D0000B01C01A5241C3088B4201D3CB00C01A95
:1001E000524183088B4201D38B00C01A524143080D
:1001F0008B4201D34B00C01A5241411A00D2014632
:10020000524110467047FFE701B5002000F006F8A4
:1002100002BDC0460029F7D076E770477047C04658
:1002200030B591B02822002106A800F0F0FE10227F
:100230000021684600F0EBFE80235B020D938023D3
:10024000012402255B0304A8049405940C950E93E5
:1002500000F0FAFB002801D072B6FEE707230290F7
:100260000390210068460093019500F01FFE0028CE
:1002700001D072B6FEE711B030BD0000F0B58BB012
:1002800000F0A8FAFFF7CCFF1422002105A800F027
:10029000BEFE8020694B00035969882701435961DC
:1002A0005A690225024080200092009A5969C003D1
:1002B000014359615A697F03024080200192019AEB
:1002C00059698002014359615A6901260240802020
:1002D0000292029A5969C0020143596180215A6908
:1002E0004903024090200392039A5A69C0050A43C9
:1002F0005A615B6900220B4004935149049B00F052
:1003000091FB00224F49504800F08CFB00224F49DE
:100310004F4800F087FB002204214E4800F082FB8A
:100320000723494805A905930697079500F0C4FAE5
:100330000A239020059305A9073BC005089306965C
:10034000079500F0B9FA90200024434B05A9C00599
:10035000059306960795089400F0AEFAD0233F481F
:1003600005A905930697079500F0A6FA30233648AD
:1003700005A9059306960795089400F09DFA384B59
:10038000334805A9059306960795089400F094FA5A
:10039000E0232F48DB0105A905930697079500F098
:1003A0008BFAE02390201B0105A9C0050593069751
:1003B000079500F081FAE0235B01059303232248AF
:1003C00005A9042708930696079500F075FA0323FC
:1003D000204805A9089305970696079500F06CFA42
:1003E000FC235B000593F63BFF3B194805A90893E6
:1003F0000696079500F060FA22002100380000F010
:100400000BFA380000F032FA22002100052000F03B
:1004100003FA052000F02AFA22002100062000F04D
:10042000FBF9062000F022FA07202200210000F04C
:10043000F3F9072000F01AFAFEE7C0460010024068
:10044000FE800000301C000000080048FF0D000086
:1004500000040048000C0048F4800000001400482C
:10046000070C0000043880B2062803D8034B800034
:10047000C05870479020C005FBE7C0463810000800
:1004800010B5012200F0CEFA10BD000010B5902486
:10049000E405200000220C4900F0C4FA20000022EC
:1004A000022100F0BFFA00220849094800F0BAFA18
:1004B00000220849084800F0B5FA00220421074844
:1004C00000F0B0FA10BDC046FC800000301C0000F7
:1004D00000080048FF0D000000040048000C004820
:1004E00010B59024E40520000122082100F09AFABA
:1004F00020000122042100F095FA002204212000AE
:1005000000F090FA10BD0000F8B50024A0B2FFF78B
:10051000A9FF1C4B6700FE5A01223100050000F0C4
:1005200081FA194B31001B7828005A1E9341174A53
:100530000134BB52002200F075FA0022124B1A70EF
:100540000B2CE3D113000120114C21780F4E5D00DC
:10055000755B002D01D10200010001330B2BF5D199
:10056000002A00D021702378002B04D0FFF7B8FFB9
:1005700000232370F8BD90200221C005FFF780FF03
:10058000F8E7C04654100008400000202A00002070
:10059000280000208023010010B59B00984250D015
:1005A00019D8102835D0364B09D802285BD004283A
:1005B0005ED0012853D00022314B1A7031E0402820
:1005C00037D08028F7D1012280211A7049002D48A8
:1005D000FFF756FF25E08022294B520190423AD086
:1005E0000BD88022D200904227D080221201904264
:1005F000E1D1012240211A70E9E780229201904264
:1006000024D08022D2019042D5D1012208211A7033
:10061000DDE71D4B1A78002A04D101321A70FFF76A
:1006200073FF10BD012AFCD100221A70FFF72EFFC4
:10063000F7E7012280211A70C9E7012220211A70F0
:10064000C5E701220E4B10211A70C0E701220421D8
:100650000E481A70BCE701221A700D48B8E78021D5
:1006600018700901F9E7012280211A70C900F4E726
:100670000122802190201A700902C005A8E7C04617
:10068000400000200004004841000020000C004809
:100690000008004801200A4B82B099690143996122
:1006A00080219A69490502400092009ADA690A435A
:1006B000DA61DB690B400193019B02B07047C046D1
:1006C00000100240FEE7FEE77047704710B500F0EB
:1006D00091F810BD704710B5012000F0A9F9022073
:1006E00000F0A6F910BD10B5042000F0A1F910BD6E
:1006F00010B5102000F09CF9402000F099F98020FE
:1007000000F096F98020800000F092F98020C0006F
:1007100000F08EF98020000100F08AF9802040016D
:1007200000F086F98020800100F082F98020C0016D
:1007300000F07EF910BD70470D4885460D480E4902
:100740000E4A002302E0D458C4500433C4188C422B
:10075000F9D30B4A0B4C002301E013600432A24290
:10076000FBD3FFF7E8FF00F025FCFFF787FDFEE76E
:1007700000200020000000200C000020A410000831
:100780000C00002048000020FEE7000070B50500C6
:10079000FA200D4B80001978FFF7B6FC0B4B0100D7
:1007A0001868FFF7B1FC00F06DF804000120002C80
:1007B00009D1032D07D802382200290000F02CF8B7
:1007C0002000034B1D6070BD0400002000000020CD
:1007D000080000201023064A10B5116803200B43BF
:1007E0001360FFF7D3FFFFF755FF002010BDC04691
:1007F00000200240034A044B11681B785B18136009
:100800007047C0464400002004000020014B1868D7
:100810007047C0464400002030B5FF2503242A005D
:100820000440E400A24089012940D243A140C3B260
:1008300000280ADBC0240B4B80088000C018A400ED
:1008400003591A401143015130BD0F200340083BAA
:1008500005489B089B001B18D86902401143D961C9
:10086000F2E7C04600E100E000ED00E0002805DB13
:100870001F2318401E3B8340014A13607047C04647
:1008800000E100E08022431E5204012093420DD279
:10089000C021074A07485360036A09061B021B0A66
:1008A0000B43036200200723906013607047C0462B
:1008B00010E000E000ED00E00023F0B587B00A682A
:1008C0001400DC4001D107B0F0BD012514009D40AB
:1008D0002C4001942A4200D195E04A685E0094467B
:1008E0000322644622400324B440E4430294541E8D
:1008F000012C2AD88768029C2740CC68B4403C432E
:10090000846044680127AC432500644624093C40C8
:100910009C402C434460C568029C25408C68B440D0
:100920002C43C460022A12D1DC080725A400041954
:10093000276A03940F241D40AD00AC40A7430C6907
:10094000AC402743039C276201E0032AE3D10468FB
:10095000029DB24025402C0014430460C02462462E
:10096000A40222424FD00125284A90279469FF050E
:100970002C43946192699C082A400592059A244A66
:10098000A400A4180F2202351D40AD00AA40A6689D
:1009900096430022B8420CD01E4F0132B84208D014
:1009A0001D4F0132B84204D01C4F0132B84200D072
:1009B0000232AA4067463243A260194A019C166877
:1009C000019DE4433543FF0301D4350025406746CC
:1009D00015605668019D3543BF0301D4350025409D
:1009E000674655609668019D3543FF0201D4350086
:1009F000254067469560D568019E2E43BF0201D40D
:100A000025402E00D660013359E7C0460010024051
:100A1000000001400004004800080048000C0048A5
:100A200000040140002A01D0816170478162FCE727
:100A3000044B10B55A69104202D05861FFF7AAFD65
:100A400010BDC04600040140F0B5040085B0002888
:100A500045D00368DB072FD423689B0700D581E0CE
:100A600023681B0700D5BCE023685B0700D5DFE0E7
:100A70002368DB061AD562690423B54D012A00D02C
:100A80004AE1696B02270B436B636B6B1A436A6322
:100A9000FFF7BCFE06006B6B3B4200D135E1F8214D
:100AA0006A6BA3698A43DB0013436B63236A002BE1
:100AB00000D059E100202AE00C21A54D6A680A40C7
:100AC000042A06D06B680B40082B0AD16B68DB0345
:100AD00007D52B689B03BFD56368002BBCD10120D1
:100AE00015E06368012B14D180232A685B0213434D
:100AF0002B60FFF78BFE80270600BF022B683B426E
:100B0000AAD1FFF783FE801B6428F7D9032005B024
:100B1000F0BD002B16D12B688E4A802713402B6026
:100B20002B688D4ABF0213402B60FFF76FFE060053
:100B30002B683B4200D18FE7FFF768FE801B6428DB
:100B4000F6D9E3E7052B05D180232A68DB0213439E
:100B50002B60C9E72B687F4A13402B602B687E4AC5
:100B60001340C5E70C227A4D6B68134206D06B68C0
:100B70001340082B10D16B68DB030DD42B689B0747
:100B800002D5E368012BAAD1F8212A6823698A4398
:100B9000DB0013432B6063E7E2680123002A0FD0D8
:100BA0002A68022713432B60FFF730FE06002B68EC
:100BB0003B42E9D1FFF72AFE801B0228F7D9A5E7BF
:100BC0002A6802279A432A60FFF720FE06002B6856
:100BD0003B4200D144E7FFF719FE801B0228F6D9FB
:100BE00094E7E26901235A4D002A10D06A6A02276D
:100BF00013436B62FFF70AFE06006B6A3B4200D0AC
:100C000032E7FFF703FE801B0228F6D97EE76A6A07
:100C100002279A436A62FFF7F9FD06006B6A3B42BE
:100C200000D121E7FFF7F2FD801B0228F6D96DE71E
:100C300080220021464D5205EB690091134208D1F4
:100C4000EB691343EB61EB6913400393039B0123AF
:100C500000938027414E7F0033683B4206D0A36853
:100C6000012B13D12A6A13432B6230E033683B43D4
:100C70003360FFF7CBFD019033683B42EFD1FFF7C4
:100C8000C5FD019BC01A6428F6D93FE70122002B5D
:100C900014D12B6A022793432B622B6A03329343AE
:100CA0002B62FFF7B3FD06002B6A3B4216D0FFF71D
:100CB000ADFD2B4B801B9842F6D927E7052B16D1AB
:100CC000296A013B0B432B622B6A1A432A62FFF706
:100CD0009DFD022706002B6A3B420FD0009B012B93
:100CE00000D0C5E6EB691F4A1340EB61C0E62B6AF2
:100CF000934304222B622B6A9343B5E7FFF786FDEB
:100D0000174B801B9842E6D900E7FFF77FFD801B59
:100D1000022800D8BFE6F9E6053203D16A6B9A4390
:100D20006A63BCE66A6B0227134301226B636B6B39
:100D300093436B63FFF76AFD06006B6B3B4200D188
:100D4000B4E6FFF763FD801B0228F6D9DEE6C04655
:100D500000100240FFFFFEFFFFFFFBFF007000409E
:100D600088130000FFFFFFEF0C21344D6A680A4032
:100D7000082A47D0324A022B32D12B6880271340F1
:100D80002B60FFF743FD0600BF042B683B4221D1D7
:100D90000F22EB6A80269343E26AB6041343EB62A8
:100DA000616AA36A6A680B4326490A4013436B6071
:100DB00080232A685B0413432B60FFF727FD0400A0
:100DC0002B68334200D075E6FFF720FD001B022898
:100DD000F6D99BE6FFF71AFD801B0228D5D995E6C8
:100DE0002B68802613402B60FFF710FD0400B6042B
:100DF0002B68334200D15DE6FFF708FD001B022897
:100E0000F6D983E61800012B00D180E680216B68BB
:100E1000606A4902EA6A1940814200D05FE60F2108
:100E20000A40E16A8A4200D059E6F0229203134058
:100E3000A26A934200D13DE651E6C046001002404E
:100E4000FFFFFFFEFFFFC2FF70B588B010221249FE
:100E5000684604AD00F0D2F8102228000F4900F0D7
:100E6000CDF80C220E4E73681A40082A11D10F20BB
:100E70006A46990C0140545CF26A0240A95CDB03AB
:100E800005D50848FFF740F9604308B070BD064833
:100E9000FAE70448F9E7C0467A1000088B1000080A
:100EA0000010024000127A0000093D00F7B504006E
:100EB0000E00002801D10120FEBD0122374D2B6814
:100EC00013408B421CD321688B0722D4CB072FD42D
:100ED00001232A681A40B24251D82368304D5B077B
:100EE00054D4FFF7B1FF6B682E4A1B061B0FD35C6F
:100EF000D8402D4B18600320FFF748FC0020DBE7AB
:100F00002B6893430B432B602B6813408B42D2D149
:100F1000D9E7234A4B0704D5E0235068DB0003439D
:100F20005360F02053688343A06803435360CDE7C8
:100F30001B4F62683B68012A19D19B03BBD5032173
:100F40007B688B4313437B60FFF760FC01900C23AD
:100F50007A681A4063689B009A42B9D0FFF756FC42
:100F6000019BC01A114B9842F1D90320A4E7022A31
:100F700002D19B01E3D49EE79B07E0D49BE72A685C
:100F80009A432A602A681A42A7D094E76B68084AF5
:100F90001340E26813436B60A3E7C04600200240A1
:100FA000001002406A1000080000002088130000B2
:100FB000FFF8FFFF70B500260C4D0D4C641BA4100C
:100FC000A64209D1002600F02BF80A4D0A4C641BFA
:100FD000A410A64205D170BDB300EB589847013666
:100FE000EEE7B300EB5898470136F2E79C10000893
:100FF0009C1000089C100008A0100008002310B5E9
:101000009A4200D110BDCC5CC4540133F8E7030010
:101010008218934200D1704719700133F9E700003C
:10102000F8B5C046F8BC08BC9E467047F8B5C04647
:08103000F8BC08BC9E467047A5
:101038000008004800080048000400480004004870
:101048000004004800040048000400481000200084
:10105800400080001000200001000200040000048D
:101068000008000000000000000001020304060759
:10107800080902030405060708090A0B0C0D0E0FE0
:101088001010000102030405060708090A0B0C0DDD
:041098000E0F100027
:04109C00E90000085F
:0410A000C100000883
:0C10A40000127A000100000004000000AF
:0400000508000739AF
:00000001FF
