:020000040800F2
:100000000020002021080008AD070008AF07000805
:1000100000000000000000000000000000000000E0
:10002000000000000000000000000000B107000810
:100030000000000000000000B3070008B50700083A
:10004000710800080000000071080008710800082D
:10005000BD070008BF070008CF070008D907000840
:10006000000000007108000871080008710800080D
:1000700071080008710800087108000800000000FD
:1000800071080008710800080000000071080008ED
:10009000710800087108000871080008710800085C
:1000A000710800087108000871080008710800084C
:1000B00071080008000000000000000000000000BF
:1000C00010B5064C2378002B07D1054B002B02D02E
:1000D000044800E000BF0123237010BD0C00002085
:1000E0000000000034130008044B10B5002B03D0AF
:1000F0000349044800E000BF10BDC04600000000F6
:100100001000002034130008002243088B4274D3EF
:1001100003098B425FD3030A8B4244D3030B8B4208
:1001200028D3030C8B420DD3FF22090212BA030C11
:100130008B4202D31212090265D0030B8B4219D3F2
:1001400000E0090AC30B8B4201D3CB03C01A524112
:10015000830B8B4201D38B03C01A5241430B8B425A
:1001600001D34B03C01A5241030B8B4201D30B0343
:10017000C01A5241C30A8B4201D3CB02C01A52416A
:10018000830A8B4201D38B02C01A5241430A8B422D
:1001900001D34B02C01A5241030A8B4201D30B0216
:1001A000C01A5241CDD2C3098B4201D3CB01C01A30
:1001B000524183098B4201D38B01C01A524143093A
:1001C0008B4201D34B01C01A524103098B4201D328
:1001D0000B01C01A5241C3088B4201D3CB00C01A95
:1001E000524183088B4201D38B00C01A524143080D
:1001F0008B4201D34B00C01A5241411A00D2014632
:10020000524110467047FFE701B5002000F006F8A4
:1002100002BDC0460029F7D076E770477047C04658
:1002200070B594B0282200210AA801F07AF81022B3
:100230000021684601F075F81022002104A801F0A1
:1002400070F80923802508938023012402266D027B
:100250005B0308A809940F9410961195129300F06F
:100260006DFC002800D0FEE70723029003902100D8
:1002700068460093019600F093FE002800D0FEE748
:10028000802304A89B000495059300F00DFF00282F
:1002900000D0FEE714B070BDF0B58BB000F00EFBDF
:1002A000FFF7BEFF1422002105A801F03AF88020D4
:1002B000824B000359690226014359615A6901249E
:1002C000024080200092009A5969C003014359619D
:1002D0005A690025024080200192019A59698002E2
:1002E000014359615A690427024080200292029A10
:1002F0005969C0020143596180215A69490302408A
:1003000090200392039A5A69C0050A435A615B69B7
:1003100000220B4004936A49049B00F0FDFB00227D
:100320006849694800F0F8FB00226849684800F015
:10033000F3FB00220421674800F0EEFB072305933E
:10034000882361485B0305A90693079600F028FB04
:10035000902003220A2305A9C0050892059306945C
:10036000079400F01DFB902005A9C0050694059791
:100370000795089500F014FB102305938423564835
:100380009B0305A90693079400F00AFB9020F02335
:1003900005A9C005059306940796089500F000FB93
:1003A0003023494805A9059306940796089500F05F
:1003B000F7FA4A4B464805A905930694079608950F
:1003C00000F0EEFAE023DB010593882340485B034D
:1003D00005A90693079600F0E3FAE0231B010593B5
:1003E0009020882305A95B03C0050693079600F0BB
:1003F000D7FAC0230593882337485B0305A90693E2
:10040000079600F0CDFA802390201B0205A9C005B5
:10041000059306940794089500F0C2FAE023361974
:100420005B01294805A9059306940794089600F0F6
:10043000B7FA284805A9069407940597089600F08E
:10044000AFFAFC2322485B0005A9059306940794A4
:10045000089600F0A5FA2248224B456003607F23EE
:1004600083608033C36005614561856100F0D8FE1B
:100470000400A84200D0FEE702000100052000F0C1
:100480003FFA052000F066FA22002100062000F065
:1004900037FA062000F05EFA22002100072000F063
:1004A0002FFA072000F056FA38002200210000F051
:1004B00027FA380000F04EFAFEE7C046001002406E
:1004C000FE800000301C000000080048FF0D000006
:1004D00000040048000C004800140048070C00000D
:1004E00044000020002800400A2803D8034B800065
:1004F000C05870479020C005FBE7C0464C13000869
:1005000010B5002200F008FB10BD000010B59024CB
:10051000E40520000122154900F0FEFA2000002227
:10052000F42100F0F9FA20000122022100F0F4FA8F
:10053000E0210F4C01222000490100F0EDFA2000DB
:100540000022302100F0E8FA0122FC21094C914000
:10055000200000F0E1FA20000022074900F0DCFA58
:1005600001220421054800F0D7FA10BD08800000E0
:100570000008004800040048070C0000000C004878
:1005800010B59024E40520000022082100F0C4FAF0
:1005900020000122042100F0BFFA002204212000E3
:1005A00000F0BAFA10BD0000F8B500241C4D2C7004
:1005B000A0B2FFF799FF06001A4B6200D75A01223A
:1005C000390000F0A9FA013400223900300000F0AF
:1005D000A3FA0B2CECD1002201201300124C134E75
:1005E00021785F00BF5B002F01D1020001000133C1
:1005F0000B2BF6D1002A00D021702378012B09D1D2
:10060000FFF7BEFF0021300016222970217000F094
:1006100088FEF8BD90200221C005FFF771FFF1E7C9
:100620004000002078130008280000202A00002045
:100630008023010010B59B0098425FD018D8102885
:1006400038D008D8022800D16DE0042800D170E02D
:10065000012863D010BD402846D08028FAD101225D
:100660008021384B49001A803748FFF749FFF1E7EE
:1006700080235B0198424CD00CD88023DB00984249
:1006800037D080231B019842E4D101222D4B402119
:100690009A80E9E780239B01984234D08023DB01D4
:1006A0009842D7D108212848FFF72AFF0122254B7D
:1006B0005A81CFE7FA2464001021244800F026FA7A
:1006C0000028C7D1013C002CF6D1214B1A78002A12
:1006D00004D101321A70FFF767FFBBE7012AB9D1D5
:1006E0001C70FFF713FFB5E70122164B80215A80DB
:1006F000BAE70122134B2021DA80B5E70122114B22
:1007000010211A81B0E701220E4B042111489A8171
:10071000ABE701220B4BDA810F48A6E78021094B9A
:1007200009011882F8E701228021064BC9005A828C
:10073000F2E7012280219020024B09029A82C00533
:1007400093E7C0462A000020000400480014004837
:1007500041000020000C00480008004801200A4B1E
:1007600082B099690143996180219A6949050240E3
:100770000092009ADA690A43DA61DB690B4001935F
:10078000019B02B07047C04600100240054B026852
:100790009A4205D18023044A1B02116A0B4313625B
:1007A0007047C0460028004000100240FEE7FEE708
:1007B0007047704710B500F091F810BD704710B544
:1007C000012000F0AFF9022000F0ACF910BD10B527
:1007D000042000F0A7F910BD10B5102000F0A2F918
:1007E000402000F09FF9802000F09CF980208000DC
:1007F00000F098F98020C00000F094F980200001FA
:1008000000F090F98020400100F08CF980208001F8
:1008100000F088F98020C00100F084F910BD704715
:100820000D4885460D480E490E4A002302E0D45873
:10083000C4500433C4188C42F9D30B4A0B4C002328
:1008400001E013600432A242FBD3FFF7E8FF00F09F
:100850003BFDFFF721FDFEE7002000200000002007
:100860000C000020C81300080C00002068000020C5
:10087000FEE7000070B50500FA200D4B80001978E6
:10088000FFF742FC0B4B01001868FFF73DFC00F03E
:100890006DF804000120002C09D1032D07D802387F
:1008A0002200290000F02CF82000034B1D6070BDD1
:1008B0000400002000000020080000201023064A49
:1008C00010B5116803200B431360FFF7D3FFFFF748
:1008D00045FF002010BDC04600200240034A044BE3
:1008E00011681B785B1813607047C04664000020D5
:1008F00004000020014B18687047C04664000020C7
:1009000030B5FF2503242A000440E400A2408901F9
:100910002940D243A140C3B200280ADBC0240B4BBC
:1009200080088000C018A40003591A4011430151E7
:1009300030BD0F200340083B05489B089B001B1857
:10094000D86902401143D961F2E7C04600E100E0F6
:1009500000ED00E0002805DB1F2318401E3B83400C
:10096000014A13607047C04600E100E08022431E48
:100970005204012093420DD2C021074A0748536018
:10098000036A09061B021B0A0B43036200200723AC
:10099000906013607047C04610E000E000ED00E09A
:1009A0000023F0B587B00A681400DC4001D107B01D
:1009B000F0BD012514009D402C4001942A4200D135
:1009C00095E04A685E009446032264462240032470
:1009D000B440E4430294541E012C2AD88768029C38
:1009E0002740CC68B4403C43846044680127AC4352
:1009F0002500644624093C409C402C434460C56863
:100A0000029C25408C68B4402C43C460022A12D159
:100A1000DC080725A4000419276A03940F241D404D
:100A2000AD00AC40A7430C69AC402743039C276250
:100A300001E0032AE3D10468029DB24025402C0066
:100A400014430460C0246246A40222424FD0012510
:100A5000284A90279469FF052C43946192699C0869
:100A60002A400592059A244AA400A4180F220235B0
:100A70001D40AD00AA40A66896430022B8420CD0A3
:100A80001E4F0132B84208D01D4F0132B84204D087
:100A90001C4F0132B84200D00232AA4067463243AE
:100AA000A260194A019C1668019DE4433543FF0387
:100AB00001D435002540674615605668019D3543D1
:100AC000BF0301D435002540674655609668019DF7
:100AD0003543FF0201D43500254067469560D5684F
:100AE000019E2E43BF0201D425402E00D660013363
:100AF00059E7C046001002400000014000040048D1
:100B000000080048000C004800040140006908404B
:100B1000431E9841C0B27047002A01D081617047DE
:100B20008162FCE7044B10B55A69104202D058614B
:100B3000FFF77EFD10BDC04600040140F0B5040083
:100B400085B0002845D00368DB072FD423689B07B6
:100B500000D581E023681B0700D5BCE023685B0754
:100B600000D5DFE02368DB061AD562690423B54DA2
:100B7000012A00D04AE1696B02270B436B636B6B60
:100B80001A436A63FFF7B6FE06006B6B3B4200D167
:100B900035E1F8216A6BA3698A43DB0013436B6379
:100BA000236A002B00D059E100202AE00C21A54D3A
:100BB0006A680A40042A06D06B680B40082B0AD1E9
:100BC0006B68DB0307D52B689B03BFD56368002BDD
:100BD000BCD1012015E06368012B14D180232A6861
:100BE0005B0213432B60FFF785FE80270600BF02E0
:100BF0002B683B42AAD1FFF77DFE801B6428F7D902
:100C0000032005B0F0BD002B16D12B688E4A80273B
:100C100013402B602B688D4ABF0213402B60FFF7F7
:100C200069FE06002B683B4200D18FE7FFF762FEAA
:100C3000801B6428F6D9E3E7052B05D180232A68B9
:100C4000DB0213432B60C9E72B687F4A13402B60FC
:100C50002B687E4A1340C5E70C227A4D6B6813421D
:100C600006D06B681340082B10D16B68DB030DD4E2
:100C70002B689B0702D5E368012BAAD1F8212A68CB
:100C800023698A43DB0013432B6063E7E268012397
:100C9000002A0FD02A68022713432B60FFF72AFE91
:100CA00006002B683B42E9D1FFF724FE801B022897
:100CB000F7D9A5E72A6802279A432A60FFF71AFEA8
:100CC00006002B683B4200D144E7FFF713FE801B70
:100CD0000228F6D994E7E26901235A4D002A10D080
:100CE0006A6A022713436B62FFF704FE06006B6A11
:100CF0003B4200D032E7FFF7FDFD801B0228F6D90A
:100D00007EE76A6A02279A436A62FFF7F3FD0600EC
:100D10006B6A3B4200D121E7FFF7ECFD801B022804
:100D2000F6D96DE780220021464D5205EB6900910E
:100D3000134208D1EB691343EB61EB691340039352
:100D4000039B012300938027414E7F0033683B4281
:100D500006D0A368012B13D12A6A13432B6230E01B
:100D600033683B433360FFF7C5FD019033683B4276
:100D7000EFD1FFF7BFFD019BC01A6428F6D93FE70A
:100D80000122002B14D12B6A022793432B622B6A7A
:100D9000033293432B62FFF7ADFD06002B6A3B4203
:100DA00016D0FFF7A7FD2B4B801B9842F6D927E7FB
:100DB000052B16D1296A013B0B432B622B6A1A4380
:100DC0002A62FFF797FD022706002B6A3B420FD0ED
:100DD000009B012B00D0C5E6EB691F4A1340EB6175
:100DE000C0E62B6A934304222B622B6A9343B5E738
:100DF000FFF780FD174B801B9842E6D900E7FFF70D
:100E000079FD801B022800D8BFE6F9E6053203D140
:100E10006A6B9A436A63BCE66A6B0227134301223A
:100E20006B636B6B93436B63FFF764FD06006B6B47
:100E30003B4200D1B4E6FFF75DFD801B0228F6D9E6
:100E4000DEE6C04600100240FFFFFEFFFFFFFBFF93
:100E50000070004088130000FFFFFFEF0C21344DAD
:100E60006A680A40082A47D0324A022B32D12B68DE
:100E7000802713402B60FFF73DFD0600BF042B6861
:100E80003B4221D10F22EB6A80269343E26AB604EB
:100E90001343EB62616AA36A6A680B4326490A40FE
:100EA00013436B6080232A685B0413432B60FFF7B6
:100EB00021FD04002B68334200D075E6FFF71AFDD0
:100EC000001B0228F6D99BE6FFF714FD801B0228C1
:100ED000D5D995E62B68802613402B60FFF70AFDD5
:100EE0000400B6042B68334200D15DE6FFF702FD33
:100EF000001B0228F6D983E61800012B00D180E6FA
:100F000080216B68606A4902EA6A1940814200D018
:100F10005FE60F210A40E16A8A4200D059E6F022DA
:100F200092031340A26A934200D13DE651E6C046C7
:100F300000100240FFFFFFFEFFFFC2FF70B588B048
:100F400010221249684604AD00F0E2F91022280090
:100F50000F4900F0DDF90C220E4E73681A40082A82
:100F600011D10F206A46990C0140545CF26A02408C
:100F7000A95CDB0305D50848FFF7C6F8604308B055
:100F800070BD0648FAE70448F9E7C0469E1300081A
:100F9000AF1300080010024000127A0000093D0063
:100FA000F7B504000E00002801D10120FEBD01228A
:100FB000374D2B6813408B421CD321688B0722D4FA
:100FC000CB072FD401232A681A40B24251D8236894
:100FD000304D5B0754D4FFF7B1FF6B682E4A1B06F8
:100FE0001B0FD35CD8402D4B18600320FFF742FC49
:100FF0000020DBE72B6893430B432B602B681340E7
:101000008B42D2D1D9E7234A4B0704D5E02350685D
:10101000DB0003435360F02053688343A06803431D
:101020005360CDE71B4F62683B68012A19D19B03CF
:10103000BBD503217B688B4313437B60FFF75AFCCE
:1010400001900C237A681A4063689B009A42B9D0D9
:10105000FFF750FC019BC01A114B9842F1D90320B5
:10106000A4E7022A02D19B01E3D49EE79B07E0D4C8
:101070009BE72A689A432A602A681A42A7D094E715
:101080006B68084A1340E26813436B60A3E7C046ED
:1010900000200240001002408E13000800000020D3
:1010A00088130000FFF8FFFFF0B50368050085B066
:1010B000DB032AD580220021384C5205E3690091D8
:1010C000134208D1E3691343E361E36913400393D7
:1010D000039B012300938027314E7F0033683B42FE
:1010E00028D0226AC02311009B002E4E19401A42BC
:1010F00032D1236A1E406B681E43009B2662012B7F
:1011000003D1E369284A1340E3612A68D30706D56F
:10111000032022490B6B8343A86803430B63002021
:10112000930617D510211D4A136B8B43E9680B43B7
:1011300013630FE033683B433360FFF7DBFB019041
:1011400033683B42CDD1FFF7D5FB019BC01A642821
:10115000F6D9032005B0F0BD6A6813408B42C8D0B1
:101160008023226A206A11005B0203432362236A00
:101170000E483140034023622162D307B9D5FFF7FF
:10118000B9FB07000222236A1342B2D1FFF7B2FB78
:10119000074BC01B9842F5D9DBE7C0460010024060
:1011A00000700040FFFCFFFFFFFFFFEFFFFFFEFFAF
:1011B00088130000A0210268F8B5D36804008B43AF
:1011C000D360FFF797FBFA2705002026BF002368AE
:1011D000DB68334201D00020F8BDFFF78BFB401BDA
:1011E000B842F4D90320F7E7F8B5402603680400B5
:1011F000DA68324201D00020F8BD01225242DA60A2
:10120000FFF778FBFA270500BF002368DB6833424D
:10121000F1D1FFF76FFB401BB842F6D90320EBE793
:1012200070B504000125002818D0437FDAB2002BE6
:1012300002D10277FFF7AAFA0223CA226377236852
:1012400020005A62773A5A62FFF7CEFF2368051EE4
:1012500006D0FF225A62042301256377280070BD5F
:101260009A68174920690A409A606268996802433F
:10127000606902430A439A60E2681A61A2681969C8
:1012800012040A4380211A61DA688A43DA609B6893
:101290009B0606D42000FFF78DFF002801D02368AD
:1012A000D7E7236807491A6C0A401A641A6CA169C7
:1012B0000A431A64FF225A6201236377CEE7C046CD
:1012C000BFFF8FFFFFFFFBFF70B500260C4D0D4CDD
:1012D000641BA410A64209D1002600F02BF80A4D89
:1012E0000A4C641BA410A64205D170BDB300EB5894
:1012F00098470136EEE7B300EB5898470136F2E71E
:10130000C0130008C0130008C0130008C41300086D
:10131000002310B59A4200D110BDCC5CC4540133F7
:10132000F8E703008218934200D170471970013327
:10133000F9E70000F8B5C046F8BC08BC9E46704707
:0C134000F8B5C046F8BC08BC9E467047DB
:10134C000008004800000048000000480000004869
:10135C000000004800080048000400480004004851
:10136C0000040048000400480004004810008000FD
:10137C0040002000100020000100020004000004C6
:10138C000008000000000000000001020304060732
:10139C00080902030405060708090A0B0C0D0E0FB9
:1013AC001010000102030405060708090A0B0C0DB6
:0413BC000E0F100000
:0413C000E900000838
:0413C400C10000085C
:0C13C80000127A00010000000400000088
:0400000508000821C6
:00000001FF
