:020000040800F2
:1000000000200020F507000881070008830700088A
:1000100000000000000000000000000000000000E0
:10002000000000000000000000000000850700083C
:100030000000000000000000870700088907000892
:1000400045080008000000004508000845080008B1
:100050009107000893070008A3070008AD070008F0
:100060000000000045080008450800084508000891
:100070004508000845080008450800080000000081
:100080004508000845080008000000004508000871
:10009000450800084508000845080008450800080C
:1000A00045080008450800084508000845080008FC
:1000B00045080008000000000000000000000000EB
:1000C00010B5064C2378002B07D1054B002B02D02E
:1000D000044800E000BF0123237010BD0C00002085
:1000E00000000000FC120008044B10B5002B03D0E8
:1000F0000349044800E000BF10BDC04600000000F6
:1001000010000020FC120008002243088B4274D328
:1001100003098B425FD3030A8B4244D3030B8B4208
:1001200028D3030C8B420DD3FF22090212BA030C11
:100130008B4202D31212090265D0030B8B4219D3F2
:1001400000E0090AC30B8B4201D3CB03C01A524112
:10015000830B8B4201D38B03C01A5241430B8B425A
:1001600001D34B03C01A5241030B8B4201D30B0343
:10017000C01A5241C30A8B4201D3CB02C01A52416A
:10018000830A8B4201D38B02C01A5241430A8B422D
:1001900001D34B02C01A5241030A8B4201D30B0216
:1001A000C01A5241CDD2C3098B4201D3CB01C01A30
:1001B000524183098B4201D38B01C01A524143093A
:1001C0008B4201D34B01C01A524103098B4201D328
:1001D0000B01C01A5241C3088B4201D3CB00C01A95
:1001E000524183088B4201D38B00C01A524143080D
:1001F0008B4201D34B00C01A5241411A00D2014632
:10020000524110467047FFE701B5002000F006F8A4
:1002100002BDC0460029F7D076E770477047C04658
:1002200070B594B0282200210AA801F05EF81022CF
:100230000021684601F059F81022002104A801F0BD
:1002400054F80923802508938023012402266D0297
:100250005B0308A809940F9410961195129300F06F
:1002600051FC002800D0FEE70723029003902100F4
:1002700068460093019600F077FE002800D0FEE764
:10028000802304A89B000495059300F0F1FE00284C
:1002900000D0FEE714B070BDF0B58BB000F0F8FAF6
:1002A000FFF7BEFF1422002105A801F01EF88020F0
:1002B0007E4B000359690226014359615A69072799
:1002C000024080200092009A5969C003014359619D
:1002D0005A690124024080200192019A59698002E2
:1002E000014359615A690025024080200292029A16
:1002F0005969C0020143596180215A69490302408A
:1003000090200392039A5A69C0050A435A615B69B7
:1003100000220B4004936649049B00F0E1FB00229D
:100320006449654800F0DCFB00226449644800F041
:10033000D7FB00220421634800F0D2FB88235E48EB
:100340005B0305A906930796059700F013FB902021
:1003500003220A2305A9C005089205930694079471
:1003600000F008FB9020F42305A9C005059306942E
:100370000796089500F0FEFA10230593842352484F
:100380009B0305A90693079400F0F4FA30234A482A
:1003900005A9059306940796089500F0EBFA4B4BD8
:1003A000474805A9059306940796089500F0E2FAD8
:1003B000E023DB010593882341485B0305A90693ED
:1003C000079600F0D7FAE0231B01059390208823BD
:1003D00005A95B03C0050693079600F0CBFAC0237E
:1003E0000593882338485B0305A90693079600F018
:1003F000C1FA802390201B0205A9C005059306942D
:100400000794089500F0B6FAE02303225B012A481E
:1004100005A9059306940794089200F0ABFA03220D
:10042000284805A9B619069407940892059600F085
:10043000A1FAFC2303225B00214805A90593069439
:100440000794089200F096FA2148224B4560036019
:100450007F2383608033C36005614561856100F05F
:10046000C3FE0400A84200D0FEE702000100052000
:1004700000F030FA052000F057FA22002100062093
:1004800000F028FA062000F04FFA22002100380080
:1004900000F020FA380000F047FA30002200210076
:1004A00000F018FA300000F03FFAFEE700100240BA
:1004B000FE800000301C000000080048FF0D000016
:1004C00000040048000C004800140048070C00001D
:1004D00044000020002800400A2803D8034B800075
:1004E000C05870479020C005FBE7C04614130008B1
:1004F00010B5002200F0F4FA10BD000010B59024F1
:10050000E40520000122154900F0EAFA200000224B
:10051000F42100F0E5FA20000122022100F0E0FAC7
:10052000E0210F4C01222000490100F0D9FA2000FF
:100530000022302100F0D4FA0122FC21094C914024
:10054000200000F0CDFA20000022074900F0C8FA90
:1005500001220421054800F0C3FA10BD0880000004
:100560000008004800040048070C0000000C004888
:1005700010B59024E40520000022082100F0B0FA14
:1005800020000122042100F0ABFA00220421200007
:1005900000F0A6FA10BD0000F8B500241C4D2C7028
:1005A000A0B2FFF799FF06001A4B6200D75A01224A
:1005B000390000F095FA013400223900300000F0D3
:1005C0008FFA0B2CECD1002201201300124C134E99
:1005D00021785F00BF5B002F01D1020001000133D1
:1005E0000B2BF6D1002A00D021702378012B09D1E2
:1005F000FFF7BEFF0021300016222970217000F0A5
:1006000074FEF8BD90200221C005FFF771FFF1E7ED
:100610004000002040130008280000202A0000208D
:100620008023010010B59B00984253D016D81028A3
:1006300036D006D8022862D0042866D0012859D0C6
:1006400010BD40283CD08028FAD101228021334BB4
:1006500049001A803248FFF74BFFF1E780235B0126
:10066000984242D00CD88023DB0098422DD08023C2
:100670001B019842E4D10122284B40219A80E9E7EE
:1006800080239B0198422AD08023DB019842D7D156
:1006900008212348FFF72CFF0122204B5A81CFE786
:1006A000204B1A78002A04D101321A70FFF774FF28
:1006B000C6E7012AC4D100221A70FFF71FFFBFE767
:1006C0000122164B80215A80C4E70122134B2021BE
:1006D000DA80BFE70122114B10211A81BAE701220B
:1006E0000E4B042110489A81B5E701220B4BDA81A9
:1006F0000E48B0E78021094B09011882F8E7012272
:100700008021064BC9005A82F2E701228021902005
:10071000024B09029A82C0059DE7C0462A000020CC
:100720000004004841000020000C00480008004878
:1007300001200A4B82B099690143996180219A692D
:10074000490502400092009ADA690A43DA61DB69DE
:100750000B400193019B02B07047C046001002405D
:10076000054B02689A4205D18023044A1B02116A94
:100770000B4313627047C04600280040001002403F
:10078000FEE7FEE77047704710B500F091F810BD26
:10079000704710B5012000F0A9F9022000F0A6F979
:1007A00010BD10B5042000F0A1F910BD10B5102047
:1007B00000F09CF9402000F099F9802000F096F9B3
:1007C0008020800000F092F98020C00000F08EF9B7
:1007D0008020000100F08AF98020400100F086F9B5
:1007E0008020800100F082F98020C00100F07EF9B5
:1007F00010BD70470D4885460D480E490E4A00232E
:1008000002E0D458C4500433C4188C42F9D30B4AC4
:100810000B4C002301E013600432A242FBD3FFF72C
:10082000E8FF00F035FDFFF737FDFEE70020002070
:10083000000000200C000020901300080C00002095
:1008400068000020FEE7000070B50500FA200D4B9F
:1008500080001978FFF758FC0B4B01001868FFF770
:1008600053FC00F06DF804000120002C09D1032D89
:1008700007D802382200290000F02CF82000034B92
:100880001D6070BD04000020000000200800002052
:100890001023064A10B5116803200B431360FFF7BD
:1008A000D3FFFFF745FF002010BDC04600200240E7
:1008B000034A044B11681B785B1813607047C046ED
:1008C0006400002004000020014B18687047C046F7
:1008D0006400002030B5FF2503242A000440E40012
:1008E000A24089012940D243A140C3B200280ADBBB
:1008F000C0240B4B80088000C018A40003591A4084
:100900001143015130BD0F200340083B05489B08AF
:100910009B001B18D86902401143D961F2E7C04619
:1009200000E100E000ED00E0002805DB1F23184097
:100930001E3B8340014A13607047C04600E100E05F
:100940008022431E5204012093420DD2C021074A47
:1009500007485360036A09061B021B0A0B43036224
:1009600000200723906013607047C04610E000E04D
:1009700000ED00E00023F0B587B00A681400DC4009
:1009800001D107B0F0BD012514009D402C40019419
:100990002A4200D195E04A685E00944603226446EC
:1009A00022400324B440E4430294541E012C2AD86C
:1009B0008768029C2740CC68B4403C43846044680C
:1009C0000127AC432500644624093C409C402C434D
:1009D0004460C568029C25408C68B4402C43C460C8
:1009E000022A12D1DC080725A4000419276A0394FF
:1009F0000F241D40AD00AC40A7430C69AC40274319
:100A0000039C276201E0032AE3D10468029DB240FF
:100A100025402C0014430460C0246246A4022242F4
:100A20004FD00125284A90279469FF052C439461F3
:100A300092699C082A400592059A244AA400A418A9
:100A40000F2202351D40AD00AA40A6689643002241
:100A5000B8420CD01E4F0132B84208D01D4F0132AF
:100A6000B84204D01C4F0132B84200D00232AA4032
:100A700067463243A260194A019C1668019DE4430F
:100A80003543FF0301D4350025406746156056689D
:100A9000019D3543BF0301D43500254067465560AD
:100AA0009668019D3543FF0201D435002540674615
:100AB0009560D568019E2E43BF0201D425402E00CB
:100AC000D660013359E7C0460010024000000140E3
:100AD0000004004800080048000C004800040140E1
:100AE000002A01D0816170478162FCE7044B10B598
:100AF0005A69104202D05861FFF792FD10BDC046FE
:100B000000040140F0B5040085B0002845D003681A
:100B1000DB072FD423689B0700D581E023681B07E0
:100B200000D5BCE023685B0700D5DFE02368DB0667
:100B30001AD562690423B54D012A00D04AE1696BD8
:100B400002270B436B636B6B1A436A63FFF7BCFEB0
:100B500006006B6B3B4200D135E1F8216A6BA3695B
:100B60008A43DB0013436B63236A002B00D059E1F7
:100B700000202AE00C21A54D6A680A40042A06D00C
:100B80006B680B40082B0AD16B68DB0307D52B6819
:100B90009B03BFD56368002BBCD1012015E06368BF
:100BA000012B14D180232A685B0213432B60FFF7CB
:100BB0008BFE80270600BF022B683B42AAD1FFF7BD
:100BC00083FE801B6428F7D9032005B0F0BD002BFD
:100BD00016D12B688E4A802713402B602B688D4AD4
:100BE000BF0213402B60FFF76FFE06002B683B42ED
:100BF00000D18FE7FFF768FE801B6428F6D9E3E792
:100C0000052B05D180232A68DB0213432B60C9E73B
:100C10002B687F4A13402B602B687E4A1340C5E740
:100C20000C227A4D6B68134206D06B681340082B78
:100C300010D16B68DB030DD42B689B0702D5E368EA
:100C4000012BAAD1F8212A6823698A43DB001343C8
:100C50002B6063E7E2680123002A0FD02A6802278D
:100C600013432B60FFF730FE06002B683B42E9D1AF
:100C7000FFF72AFE801B0228F7D9A5E72A6802277A
:100C80009A432A60FFF720FE06002B683B4200D102
:100C900044E7FFF719FE801B0228F6D994E7E269C2
:100CA00001235A4D002A10D06A6A022713436B624F
:100CB000FFF70AFE06006B6A3B4200D032E7FFF7FF
:100CC00003FE801B0228F6D97EE76A6A02279A4350
:100CD0006A62FFF7F9FD06006B6A3B4200D121E72B
:100CE000FFF7F2FD801B0228F6D96DE78022002174
:100CF000464D5205EB690091134208D1EB6913434D
:100D0000EB61EB6913400393039B0123009380275E
:100D1000414E7F0033683B4206D0A368012B13D1BC
:100D20002A6A13432B6230E033683B433360FFF79A
:100D3000CBFD019033683B42EFD1FFF7C5FD019B2E
:100D4000C01A6428F6D93FE70122002B14D12B6A80
:100D5000022793432B622B6A033293432B62FFF7E4
:100D6000B3FD06002B6A3B4216D0FFF7ADFD2B4BBF
:100D7000801B9842F6D927E7052B16D1296A013B3B
:100D80000B432B622B6A1A432A62FFF79DFD022751
:100D900006002B6A3B420FD0009B012B00D0C5E61A
:100DA000EB691F4A1340EB61C0E62B6A93430422B0
:100DB0002B622B6A9343B5E7FFF786FD174B801B29
:100DC0009842E6D900E7FFF77FFD801B022800D894
:100DD000BFE6F9E6053203D16A6B9A436A63BCE663
:100DE0006A6B0227134301226B636B6B93436B6344
:100DF000FFF76AFD06006B6B3B4200D1B4E6FFF7DC
:100E000063FD801B0228F6D9DEE6C04600100240D2
:100E1000FFFFFEFFFFFFFBFF007000408813000094
:100E2000FFFFFFEF0C21344D6A680A40082A47D0C3
:100E3000324A022B32D12B68802713402B60FFF7F8
:100E400043FD0600BF042B683B4221D10F22EB6A11
:100E500080269343E26AB6041343EB62616AA36A95
:100E60006A680B4326490A4013436B6080232A6853
:100E70005B0413432B60FFF727FD04002B6833420C
:100E800000D075E6FFF720FD001B0228F6D99BE68F
:100E9000FFF71AFD801B0228D5D995E62B6880261E
:100EA00013402B60FFF710FD0400B6042B6833429B
:100EB00000D15DE6FFF708FD001B0228F6D983E6A6
:100EC0001800012B00D180E680216B68606A49021E
:100ED000EA6A1940814200D05FE60F210A40E16AC8
:100EE0008A4200D059E6F02292031340A26A93424C
:100EF00000D13DE651E6C04600100240FFFFFFFE74
:100F0000FFFFC2FF70B588B010221249684604ADD9
:100F100000F0E2F9102228000F4900F0DDF90C2260
:100F20000E4E73681A40082A11D10F206A46990C98
:100F30000140545CF26A0240A95CDB0305D5084815
:100F4000FFF7E2F8604308B070BD0648FAE70448CE
:100F5000F9E7C04666130008771300080010024046
:100F600000127A0000093D00F7B504000E000028C9
:100F700001D10120FEBD0122374D2B6813408B4269
:100F80001CD321688B0722D4CB072FD401232A68D6
:100F90001A40B24251D82368304D5B0754D4FFF752
:100FA000B1FF6B682E4A1B061B0FD35CD8402D4B3C
:100FB00018600320FFF748FC0020DBE72B68934311
:100FC0000B432B602B6813408B42D2D1D9E7234AC5
:100FD0004B0704D5E0235068DB0003435360F02047
:100FE00053688343A06803435360CDE71B4F626897
:100FF0003B68012A19D19B03BBD503217B688B4336
:1010000013437B60FFF760FC01900C237A681A4061
:1010100063689B009A42B9D0FFF756FC019BC01A47
:10102000114B9842F1D90320A4E7022A02D19B0177
:10103000E3D49EE79B07E0D49BE72A689A432A60A3
:101040002A681A42A7D094E76B68084A1340E268FE
:1010500013436B60A3E7C04600200240001002402B
:10106000561300080000002088130000FFF8FFFF5F
:10107000F0B50368050085B0DB032AD58022002186
:10108000384C5205E3690091134208D1E3691343D8
:10109000E361E36913400393039B012300938027DB
:1010A000314E7F0033683B4228D0226AC0231100B2
:1010B0009B002E4E19401A4232D1236A1E406B68A3
:1010C0001E43009B2662012B03D1E369284A13408B
:1010D000E3612A68D30706D5032022490B6B8343BB
:1010E000A86803430B630020930617D510211D4AFF
:1010F000136B8B43E9680B4313630FE033683B4387
:101100003360FFF7E1FB019033683B42CDD1FFF73D
:10111000DBFB019BC01A6428F6D9032005B0F0BDA3
:101120006A6813408B42C8D08023226A206A11006B
:101130005B0203432362236A0E483140034023626B
:101140002162D307B9D5FFF7BFFB07000222236A4C
:101150001342B2D1FFF7B8FB074BC01B9842F5D939
:10116000DBE7C0460010024000700040FFFCFFFFBC
:10117000FFFFFFEFFFFFFEFF88130000A0210268C2
:10118000F8B5D36804008B43D360FFF79DFBFA27C3
:1011900005002026BF002368DB68334201D0002011
:1011A000F8BDFFF791FB401BB842F4D90320F7E7E5
:1011B000F8B5402603680400DA68324201D0002006
:1011C000F8BD01225242DA60FFF77EFBFA270500E4
:1011D000BF002368DB683342F1D1FFF775FB401B8A
:1011E000B842F6D90320EBE770B5040001250028CA
:1011F00018D0437FDAB2002B02D10277FFF7B0FAA2
:101200000223CA226377236820005A62773A5A621F
:10121000FFF7CEFF2368051E06D0FF225A62042383
:1012200001256377280070BD9A68174920690A4034
:101230009A60626899680243606902430A439A604F
:10124000E2681A61A268196912040A4380211A61CE
:10125000DA688A43DA609B689B0606D42000FFF7B1
:101260008DFF002801D02368D7E7236807491A6C4F
:101270000A401A641A6CA1690A431A64FF225A626E
:1012800001236377CEE7C046BFFF8FFFFFFFFBFF61
:1012900070B500260C4D0D4C641BA410A64209D15C
:1012A000002600F02BF80A4D0A4C641BA410A6423D
:1012B00005D170BDB300EB5898470136EEE7B30097
:1012C000EB5898470136F2E78813000888130008A6
:1012D000881300088C130008002310B59A4200D12F
:1012E00010BDCC5CC4540133F8E70300821893426C
:1012F00000D1704719700133F9E70000F8B5C04616
:10130000F8BC08BC9E467047F8B5C046F8BC08BC9F
:041310009E4670473E
:1013140000080048000000480000004800000048A1
:101324000000004800080048000400480004004889
:101334000004004800040048000400481000800035
:1013440040002000100020000100020004000004FE
:10135400000800000000000000000102030406076A
:10136400080902030405060708090A0B0C0D0E0FF1
:101374001010000102030405060708090A0B0C0DEE
:041384000E0F100038
:04138800E900000870
:04138C00C100000894
:0C13900000127A000100000004000000C0
:04000005080007F5F3
:00000001FF
